9999999M090901202042    Copyright 2020 National Council for Prescription Drug Programs, All Rights Reserved                                                                                                                                                                                                                                                                                                                                                                                                         
000026SAV MOR DRUG STORES                25625 SOUTHFIELD ROAD                                  SUITE 206                                              SOUTHFIELD                    MI48075    2483481570202  2483484316          383274808      YVONNE GALLAGHER              EXECUTIVE VICE PRESIDENT      CONTACT@SAV-MOR.COM                               00000000                                                                                                                                            
000034CORPORATE REMIT                    401 FORD STREET                                        P.O. BOX 151                                           FORD CITY                     PA16226    7247631201012507247634040          251258407      DAVID CIPPEL                  PRESIDENT                     JAMIED@KLINGENSMITHS.COM                          00000000                                                                                                                                            
000067INMAR RX SOLUTIONS, INC.           635 VINE ST.                                                                                                  WINSTON SALEM                 NC27101    3366312958     3367701996          351816480      TOM MARTIN                    MANAGER, HEALTHCARE           TOM.MARTIN@INMAR.COM                              00000000                                                                                                                                            
000075SCRIPTPRO                          5828 REEDS RD                                                                                                 MISSION                       KS6620227409133841008                         742838351      EILEEN RAINIS                 DIRECTOR, THIRD PARTY ADMIN   ERAINIS@SCRIPTPRO.COM                             00000000                                                                                                                                            
000091OUTPATIENT PHARMACY AND WESTWOOD   PO BOX 955772                                                                                                 ST LOUIS                      MO6319557729135882370     9135882385          481202402      RICK COULDRY                  DIRECTOR OF PHARMACY          RCOULDRY@KUMC.ORG                                 00000000                                                                                                                                            
000109PROVIDERPAY REMIT                  3949 S 700 E STE 320                                                                                          SALT LAKE CITY                UT8410724438017164857     8017164872          263458261      SAMANTHA ADAMS                ACCOUNT SERVICES              ACCOUNTSETUP@PROVIDERPAY.COM                      00000000                                                                                                                                            
000117COMPLETE CLAIMS PROCESSING INC     2980 N BEVERLY GLEN CIR STE 100                                                                               LOS ANGELES                   CA9007717353104749809     8884318819                         LYNETTE GEBLER                DIRECTOR, PHARMACY COMPLIANCE SUPPORTINGDOCUMENTS@PTLCENTRAL.COM                00000000                                                                                                                                            
000125FRUTH PHARMACY INC                 PO BOX 791420                                                                                                 BALTIMORE                     MD2127914203046751612102  3046757338          550681886      LUCILLE CASSELL               TREASURER                     SCASSELL@FRUTHPHARMACY.COM                        00000000                                                                                                                                            
000166BALLS FOUR B CORP                  5300 SPEAKER RD                                                                                               KANSAS CITY                   KS6610610509135731294     9135518580          480894902      LISA MARTIN                   3RD PARTY ADMIN.              LISA.MARTIN@BALLSFOODS.COM                        00000000                                                                                                                                            
000182VERIDIKAL                          PO BOX 3106                                                                                                   SCOTTSDALE                    AZ852713106480636183013   4806368700          271313732      LISA M. RIDING                PRINCIPAL                     LISARIDING@VERIDIKAL.COM                          00000000                                                                                                                                            
000190THE RESOURCE CENTER PHARMACY       200 DUNHAM AVE                                                                                                JAMESTOWN                     NY1470125287166611001                         160850407      SUZETTE SMITH                 FINANCE MANAGER               SUZETTE.SMITH@RESOURCECENTER.ORG                  00000000                                                                                                                                            
000208ERECON/ENSUREPAY                   PO BOX 16430                                                                                                  OKLAHOMA CITY                 OK73113    4055575700     4055252196          731250178      MELANIE MAXWELL               SENIOR VICE PRESIDENT         MMAXWELL@PPOK.COM                                 00000000                                                                                                                                            
000232RESOLVERX                          5601 SHIRLEY PARK DR                                                                                          BESSEMER                      AL35022340220527710774    2052771087                         BRITTNEY WITHERS              CHOICE COORDINATOR            BRITTNEYW@APCINET.COM                             00000000                                                                                                                                            
000240MSKCC RETAIL PHARMACY              PO BOX 026447                                                                                                 NEW YORK                      NY1008764472126398464     6462272465          131924236      SUSAN MURILLO                 SUPERVISING PHARMACIST        MURILLOS@MSKCC.ORG                                00000000                                                                                                                                            
000257PRESBYTERIAN MEDICAL SERVICES INC  PO BOX 2267                                                                                                   SANTA FE                      NM8750422675059825565     5059868299          850206810      STEPHEN QUESADA               DIRECTOR OF PHARMACY AND LABORSTEPHEN.QUESADA@PMSNM.ORG                         00000000                                                                                                                                            
000265UCSD AMBULATORY CARE PHARMACY      PO BOX 743475                                                                                                 LOS ANGELES                   CA9007434756195436194     6195435829          371696000      GARY HAGNEY                   DIRECTOR, UCSD AMCARE PHARMACYGHAGNEY@UCSD.EDU                                  00000000                                                                                                                                            
000273UCSD MEDICAL CENTER RETAIL PHARMACYPO BOX 743475                                                                                                 LOS ANGELES                   CA9007434756195436194     6195435823          330599494      GARY HAGNEY                   DIRECTOR,UCSD AMCARE PHARMACY GHAGNEY@UCSD.EDU                                  00000000                                                                                                                                            
000281COMMUNITY HEALTH CENTERS, INC.     110 S WOODLAND ST                                                                                             WINTER GARDEN                 FL34787354640790588271001 4079058998          591480970      DEBRA ANDREE                  VICE PRESIDENT / CHIEF MEDICALMANAGEDCARE@CHCFL.ORG                             00000000                                                                                                                                            
000299SANTO DOMINGO PUEBLO HEALTH CENTER PO BOX 1024                                                                                                   ALBUQUERQUE                   NM8710310245054653073173                      275303526      KATHY CALABAZA                PHARMACY TECH/BILLING TECH    KCALABAZA@KP-HC.ORG                               00000000                                                                                                                                            
000307LIBRARX DIRECT                     PO BOX 26546                                                                                                  SHAWNEE MISSION               KS6622565469136610298     9136610297                         AMANDA SCHAEUBLE              VP OF OPERATIONS              ASCHAEUBLE@PHARMACYFIRST.COM                      00000000                                                                                                                                            
000349WMS                                3529 OLD CONEJO RD STE 114                                                                                    THOUSAND OAKS                 CA9132061488054098148404  8887776022          463922829      EMILY DAVIS                   TEAM LEAD                     EDAVIS@WINFIELDMEDICAL.COM                        00000000                                                                                                                                            
000364CCI                                PO BOX 3328                                                                                                   BENTONVILLE                   AR7271217844796369702     8774272307          452856656      DAVID HOPKINS                 OWNER                         DHOPKINS@HEALTH-RIGHT.COM                         00000000                                                                                                                                            
000406WAL-MART RECONCILIATIN             327 RED POWELL DRIVE                                                                                          DERBY                         KS6703726293167885880                         710862119      CONNIE COFER                  ACCOUNTS BUSINESS ANALYST     DERBYCC@WAL-MART.COM                              00000000                                                                                                                                            
000422VINEET PARIKH                      15 GARDENIA COURT                                                                                             SAYREVILLE                    NJ08872    7324857984                         810956593      VINEET PARIKH                 CEO                           PARLINRX@GMAIL.COM                                00000000                                                                                                                                            
000463NOVO PSAO                          P.O. BOX 301                                                                                                  LINWOOD                       NJ08221    8885900808900  8667895036          472887228      MIRO KESIC                    PRESIDENT                     MKESIC@NOVOHCS.COM                                00000000                                                                                                                                            
000471RUBEN'S PHARMACY COMPOUNDING & WELLPO BOX 4494                                                                                                   EDINBURG                      TX7854044949566395208                         812729072      RUBEN ZAVALA                  PRESIDENT/MEMBER              RZAVALARX@YAHOO.COM                               00000000                                                                                                                                            
000505PHARMEDQUEST                       PO BOX 9236                                                                                                   BREA                          CA92822    7143641469     7143644666          830342603      DUANE SAIKAMI                 COO                           COMPLIANCE@PHARMEDQUEST.COM                       00000000                                                                                                                                            
000513EMEDRX HIV                         484 S DURKIN                                                                                                  SPRINGFIELD                   IL62704    2176975533     8008301813          472532948      DEBBIE DRENNAN                PRESIDENT                     DDRENNAN@E-MEDRXSOLUTIONS.COM                     00000000                                                                                                                                            
000521CONCIERGE MEDICAL MANAGEMENT GROUP 760 OLD ROSWELL ROAD                                   SUITE 117                                              ROSWELL                       GA30076    8007048875     8888401265          270737740      NANCY BONNER                  BUSINESS MANAGER              INFO@CMMG.COM                                     00000000                                                                                                                                            
000604AT HOME IV PROFESSIONALS           5901 AMMENDALE RD.                                     SUITE E                                                BELTSVILLE                    MD20705    8008479997                         201956545      JOEL SABAN                    PRESIDENT                     CONTRACTING@DIPLOMAT.IS                           00000000                                                                                                                                            
000653NET RX                             2300 E 3RD LOOP SUITE 200                                                                                     VANCOUVER                     WA98661    8663363879     3605670394          823900810      SCOTT WOLAK                   PRESIDENT                     SWOLAK@COMCAST.NET                                00000000                                                                                                                                            
000679BIORX-IA                           PO BOX 674966                                                                                                 DETROIT                       MI4826749665133382551                                        DOUGLAS ERIC HILL             VICE PRESIDENT                CONTRACTING@DIPLOMAT.IS                           00000000                                                                                                                                            
000695DIPLOMAT SPECIALTY PHARMACY        PO BOX 674811                                                                                                 DETROIT                       MI4826748118107689456                                        JOEL SABAN                    PRESIDENT                     CONTRACTING@DIPLOMAT.IS                           00000000                                                                                                                                            
000703RX DEVELOPMENT ASSOCIATES          PO BOX 865632                                                                                                 ORLANDO                       FL32886    4079718708108  4079718708          272361899      JAIME ADAMS                   TEAM LEAD                     JADAMS@RXCINC.COM                                 00000000                                                                                                                                            
000711CASTIARX                           701 EMERSON RD.                                        SUITE 301                                              CREVE COEUR                   MO63141    31465221216807 3146523126          813741657      ALBERT THIGPEN                PRESIDENT                     ATHIGPEN@LDIRX.COM                                00000000                                                                                                                                            
000737PERSONALMED                        10370 RICHMOND                                         SUITE 230                                              HOUSTON                       TX77042    2817763854                         472873823      GARY MC CRORY                 DIRECTOR OF PHARMACY COMPLIANCGMCCRORY@PERSONALMEDRX.COM                        00000000                                                                                                                                            
000745PIKEVILLE COMMUNITY PHARMACY       1709 KY ROUTE 321                                      SUITE 3                                                PRESTONSBURG                  KY41653    6068868546     6068868548          610849776      VICKI HUNT                    DIRECTOR OF REIMBURSEMENT     V.HUNT@BSHC.ORG                                   00000000                                                                                                                                            
000752BAILEY'S PHARMACY                  780 US HWY 1                                           SUITE 101                                              VERO BEACH                    FL32962    7724928559     7724928735          451810240      TRISHA BAILEY                 CEO                           TBAILEY0802@GMAIL.COM                             00000000                                                                                                                                            
000760PCORP                              128 MILLPORT CIRCLE                                    SUITE 200                                              GREENVILLE                    SC29607    8002151136                         832943859      ASHLEY BAJOREK                DIRECTOR OF CREDENTIALING AND ABAJOREK@INTEGRATIVEACONSULT.COM                  00000000                                                                                                                                            
000778SCRIPT MANAGER LLC                 PO BOX 210967                                                                                                 AUBURN HILLS                  MI48321    4077965393                         473972282      KAREN MARTINEZ                SENIOR COLLECTOR              KMARTINEZ@SCRIPTMANAGER.NET                       00000000                                                                                                                                            
000786ASSOCIATED MEDICAL PROFESSIONALS OF100 METROPOLITAN PARK DRIVE                            SUITE 100                                              LIVERPOOL                     NY13088    3158709370     3155586611          208928235      STACY RIVERS                  CONTROLLER                    SRIVERS@AMPOFNY.COM                               00000000                                                                                                                                            
000794ADVANCED PAY                       30224 US HIGHWAY 19 N                                                                                         CLEARWATER                    FL33761    7274899383                                        MIRAL PATEL                   PRESIDENT                     MIRAL.PATEL@HEALTHLINK-SOLUTIONS.COM              00000000                                                                                                                                            
9999999M090901202042    Copyright 2020 National Council for Prescription Drug Programs, All Rights Reserved                                                                                                                                                                                                                                                                                                                                                                                                         
