9999999M0309012020447   Copyright 2020 National Council for Prescription Drug Programs, All Rights Reserved                                                                                                                                                                                                                                                                                                                                                                                                         
000018WINN DIXIE STORES INC              PHARMACY ACCOUNTS RECEIVABLES                          PO BOX 850001                                          ORLANDO                       FL3288502319043706872     9047835089                         LAWANDA SCIBERRAS             ACCOUNTING SUPERVISOR         LAWANDASCIBERRAS@WINN-DIXIE.COM                   00000000                                                                                                                                            
000026NEW ALBERTSONS LP                  P.O. BOX 742382                                                                                               LOS ANGELES                   CA9007423826238693463     6238691278                         REBECCA DAVENPORT             ACCOUNTANT - AR PHARMACY      REBECCA.DAVENPORT@SAFEWAY.COM                     00000000                                                                                                                                            
000042COSTCO PHARMACIES                  PO BOX 34300                                                                                                  SEATTLE                       WA9812413004253132892     4253136595                         MICHAEL MASTROMONICA          AVP PHARMACY SERVICES         MMASTROMONICA@COSTCO.COM                          00000000                                                                                                                                            
000141HY VEE INC                         PO BOX 310442                                                                                                 DES MOINES                    IA5033104427122256230     7122255700                         ROBERT EGELAND                VICE PRESIDENT, PHARMACY      BEGELAND@HY-VEE.COM                               00000000                                                                                                                                            
000166RITE AID CORPORATION               PO BOX 371115                                                                                                 PITTSBURGH                    PA1525071157177612633     7179758659                         JENNIFER ZOREK                MNGR OL ADJUDICATION          JZOREK@RITEAID.COM                                00000000                                                                                                                                            
000224LONGS DRUG STORES                  83649 COLLECTION CENTER DR                                                                                    CHICAGO                       IL6069308364017651500     4017707108                         SUSAN COLBERT                 DIRECTOR, PAYER RELATIONS     SUSAN.COLBERT@CVSCAREMARK.COM                     00000000                                                                                                                                            
000265CARRS QUALITY CENTER               PO BOX 742382                                                                                                 LOS ANGELES                   CA9007423826238693463     6238691278                         REBECCA DAVENPORT             ACCOUNTANT - AR PHARMACY      REBECCA.DAVENPORT@SAFEWAY.COM                     00000000                                                                                                                                            
000281GIANT EAGLE INC                    LOCKBOX 643559                                                                                                PITTSBURGH                    PA1526435594129681550     4129681727                         DEBRA KRASNOW                 DIR MANAGED CARE              DEBBIE.KRASNOW@GIANTEAGLE.COM                     00000000                                                                                                                                            
000307KMART CORPORATION                  12658 COLLECTIONS CENTER DRIVE                                                                                CHICAGO                       IL6069301268472864102     8472861603                         JENNIFER SPEARES              SR DIRECTOR OF PHARMACY COMPLIJENNIFER.SPEARES@SEARSHC.COM                      00000000                                                                                                                                            
000315PUBLIX SUPER MARKETS INC           PO BOX 116181                                                                                                 ATLANTA                       GA3036861818636881188     8636165846                         KIMBERLY BONE                 MNGR OF MANAGED CARE          RXMANAGEDCARE@PUBLIX.COM                          00000000                                                                                                                                            
000331RALEY'S THIRD PARTY RECEIVABLES    500 W CAPITOL AVE                                                                                             WEST SACRAMENTO               CA9560529699163736429     9163766681                         CYNDY BRADSHAW                PHARMACY A/R SUPERVISOR, PHARMCBRADSHA@RALEYS.COM                               00000000                                                                                                                                            
000349ALBERTSONS COMPANIES INC           PO BOX 742382                                                                                                 LOS ANGELES                   CA9007423826238693463     6238691278                         REBECCA DAVENPORT             ACCOUNTANT - AR PHARMACY      REBECCA.DAVENPORT@SAFEWAY.COM                     00000000                                                                                                                                            
000356CVS HEALTH CORP (TARGET)           83649 COLLECTION CENTER DRIVE                                                                                 CHICAGO                       IL6069308364017702751     4017707108                         SUSAN COLBERT                 SR. DIRECTOR, PAYER RELATIONS SUSAN.COLBERT@CVSHEALTH.COM                       00000000                                                                                                                                            
000364SUPERVALU PHARMACIES INC           PO BOX 776425                                                                                                 CHICAGO                       IL6067764256517794023     6517792023                         JESSICA O'CONNELL             MANAGER, MANAGED CARE         SVUPHARMACYMANAGEDCA@SUPERVALU.COM                00000000                                                                                                                                            
000372AHOLD USA PHARMACY                 3226 PAYSPHERE CIR                                                                                            CHICAGO                       IL6067400327179601700                                        TAMMIE COULSTON               MGR ACCOUNTS RECEIVABLE       TAMMIE.COULSTON@AHOLD.COM                         00000000                                                                                                                                            
000406MID ATLANTIC GROUP                 GREAT ATLANTIC PCF TEA CO                              PO BOX 23069                                           NEWARK                        NJ0718900694103559400     4103546291                         BOB MCQUITTY                                                                                                  00000000                                                                                                                                            
000414BIMART CORPORATION                 PO BOX 2310                                                                                                   EUGENE                        OR97402019954134406812144 5416877653                         MEGAN COLLINS                 PHCY SYSTEMS SPECIALIST       MEGAN.COLLINS@BIMART.COM                          00000000                                                                                                                                            
000422SCHNUCK MARKETS INC                PO BOX 952018                                                                                                 SAINT LOUIS                   MO6319520183149944902     3149944586                         LISA HERZWURM                 MGR THIRD PARTY CLAIMS PROC   LHERZWURM@SCHNUCKS.COM                            00000000                                                                                                                                            
000430MEDCART SPECIALTY CARE LLC         PO BOX 742382                                                                                                 LOS ANGELES                   CA9007423826238693463     6238691278                         REBECCA DAVENPORT             ACCOUNTANT - AR PHARMACY      REBECCA.DAVENPORT@SAFEWAY.COM                     00000000                                                                                                                                            
000448WEIS PHARMACY DEPT                 P O BOX 8500-2022                                      LOCKBOX # 2022                                         PHILADELPHIA                  PA1917820225702863623     5709883774                         RICHARD SEIPP, RPH            VICE PRESIDENT, PHARMACY      RSEIPP@WEISMARKETS.COM                            00000000                                                                                                                                            
000554KINNEY DRUGS                       PO BOX 988                                                                                                    BUFFALO                       NY14240098831528736002131 3152871887                         MELODY LACOUR                 THIRD PARTY SUPERVISOR        MELODYLACOUR@KPHHEALTHCARESERVICES.COM            00000000                                                                                                                                            
000638KELSEY SEYBOLD CLINIC              PO BOX 848314                                                                                                 DALLAS                        TX7528483147134425250     7134425253                         ANGELA HALL                   PHARMACY SYSTEMS ADMINISTRATORANGELA.HALL@KELSEY-SEYBOLD.COM                    00000000                                                                                                                                            
000661BROOKSHIRE BROS LTD                PO BOX 2058                                                                                                   LUFKIN                        TX75902    93663481554508 9366348646                         LYNN RUSSELL                  RX OPERATIONS & PERSONNEL ADMILRUSSELL@BROOKSHIREBROS.COM                       00000000                                                                                                                                            
000687HANNAFORD BROS CO INC              PO BOX 404871                                                                                                 ATLANTA                       GA3038448712078857454     2078853121                         ELWEN EATON                   PHARMACY INSURANCE SPECIALIST ELWEN.EATON@DELHAIZE.COM                          00000000                                                                                                                                            
000745BI LO LLC                          PHARMACY ACCOUNTS RECEIVABLE                           P. O. BOX 850001                                       ORLANDO                       FL3288502319043706872     9047835089                         LAWANDA SCIBERRAS             ACCOUNTING MANAGER            LAWANDASCIBERRAS@BILOHOLDINGS.COM                 00000000                                                                                                                                            
000760PHARMACY PLUS INC                  2901 CORPORATE CIR                                                                                            FLOWER MOUND                  TX7502856254696352829     4696352849                         PAT WHITCHURCH                CONTROLLER                    PWHIT.PHARMACYPLUS@YAHOO.COM                      00000000                                                                                                                                            
000786ESSENTIA HEALTH PHARMACIES         400 E 3RD ST                                           ATTN PAYMENT POSTING (BSC                              DULUTH                        MN5580519512187866716     2187866729                         THERESA NOPONEN               DIRECTOR REVENUE SERVICES     THERESA.NOPONEN@ESSENTIAHEALTH.ORG                00000000                                                                                                                                            
000794WEGMANS FOOD MARKETS               PO BOX 347175                                          ATTN: THIRD PARTY RECEIVABLES                          PITTSBURGH                    PA1525171755854293705     5854293318                         JULIE LENHARD                 MANAGED CARE SPECIALIST       HEIDI.POE@WEGMANS.COM                             00000000                                                                                                                                            
000885ABS LLC SO CAL AND IMW             PO BOX 742382                                                                                                 LOS ANGELES                   CA9007423826238693463     6238691278                         REBECCA DAVENPORT             SENIOR ACCOUNTANT             REBECCA.DAVENPORT@SAFEWAY.COM                     00000000                                                                                                                                            
001074THE BARTELL DRUG COMPANY           PO BOX 3721                                                                                                   SEATTLE                       WA9812437212067632626298  2067632062                         EMMA BENEFIEL                                               EMMAB@BARTELLDRUGS.COM                            00000000                                                                                                                                            
001157INSERRA SUPERMARKET SHOPRITE       PO BOX 21158                                                                                                  NEW YORK                      NY1008711582015128439     2015298701                         MELISSA FIGUEROA RIVERA       THIRD PARTY ADMIN             MELISSA.FIGUEROA-RIVERA@WAKEFERN.COM              00000000                                                                                                                                            
001165CAREMARK LLC                       LOCKBOX 840688                                         1950 N. STEMMONS FWY., STE. 5010                       DALLAS                        TX7520731349097994174     9097994364                         SANDY CAMPA                   PROVIDERSHIP SUPERVISOR       SANDY.CAMPA@CAREMARK.COM                          00000000                                                                                                                                            
001173MEIJER PHARMACY RECEIVABLES        PO BOX 74008448                                                                                               CHICAGO                       IL6067484486167913346     6167358532                         JASON BEAUCH                  DIRECTOR, MANAGED CARE        RXNOTICES@MEIJER.COM                              00000000                                                                                                                                            
001181YOKES PAC N SAVE                   PO BOX 141268                                                                                                 SPOKANE                       WA9921412685099212292     5099216801                         CAROL KLEIN                                                                                                   00000000                                                                                                                                            
001223KING KULLEN GROCERY CO INC         PO BOX 8500                                            WACHOVIA LOCKBOX # 7617                                PHILADELPHIA                  PA1917885005167337100     5168276325                         MIKE SIMCO                    OFFICE MANAGER                MSIMCO@KINGKULLEN.COM                             00000000                                                                                                                                            
001249RANDALLS FOOD AND DRUG LP          PO BOX 742382                                                                                                 LOS ANGELES                   CA9007423826238693463     6238691278                         REBECCA DAVENPORT             ACCOUNTANT - AR PHARMACY      REBECCA.DAVENPORT@SAFEWAY.COM                     00000000                                                                                                                                            
001256TOM THUMB FOOD AND PHCY            PO BOX 742382                                                                                                 LOS ANGELES                   CA9007423826238693463     6238691278                         REBECCA DAVENPORT             ACCOUNTANT - AR PHARMACY      REBECCA.DAVENPORT@SAFEWAY.COM                     00000000                                                                                                                                            
001264ESKENAZI HEALTH                    1001 W 10TH ST                                                                                                INDIANAPOLIS                  IN46202    3176306708     3176308772                         TODD COX                      OUTPATIENT PHARMACY MANAGER   TODD.COX@WISHARD.EDU                              00000000                                                                                                                                            
001272CVS HEALTH CORP                    83649 COLLECTION CENTER DR                                                                                    CHICAGO                       IL6069308364017702751     4017707108                         SUSAN COLBERT                 DIRECTOR, PAYER RELATIONS     SUSAN.COLBERT@CVSHEALTH.COM                       00000000                                                                                                                                            
001306VILLAGE SUPERMARKETS               P.O. BOX 780230                                                                                               PHILADELPHIA                  PA1917802307325218439     7325218701                         MELISSA FIGUEROA-RIVERA       THIRD PARTY ADMIN             MELISSA.FIGUEROA-RIVERA@WAKEFERN.COM              00000000                                                                                                                                            
001322WALGREENS DRUG STORES              PO BOX 90480                                                                                                  CHICAGO                       IL6069604802177092386     2177092344                         ALYSSA SWEETEN-PATAKI         MANAGER                       ALYSSA.SWEETEN-PATAKI@WALGREENS.COM               00000000                                                                                                                                            
001371RONETCO SUPERMARKETS               1070 US HIGHWAY 46                                     ATTN SALES DEPT                                        LEDGEWOOD                     NJ0785297017325218439     7325218701                         MELISSA FIGUEROA RIVERA       THIRD PARTY ADMIN             MELISSA.FIGUEROA-RIVERA@WAKEFERN.COM              00000000                                                                                                                                            
001520HARRIS TEETER PHARMACY             PO BOX 842772                                                                                                 BOSTON                        MA0228427726206945559     6205606888                         ALLISON BREDESTEGE            PHARMACY LICENSING MANAGER    ALLISON.BREDESTEGE@KROGER.COM                     00000000                                                                                                                                            
001546HI SCHOOL PHARMACY INC             916 W EVERGREEN BLVD                                                                                          VANCOUVER                     WA98660    3602132236     3602132238                         GINA GARRISON                 CONTRACT ADMIN                GINAG@HI-SCHOOLPHARMACY.COM                       00000000                                                                                                                                            
001587LML ENTERPRISES                    PO BOX 21158                                                                                                  NEW YORK                      NY1008711582015128330     2015291189                         MELISSA FIGUEROA RIVERA       THIRD PARTY ADMINISTRATOR     MELISSA.FIGUEROA-RIVERA@WAKEFERN.COM              00000000                                                                                                                                            
001694BROOKSHIRE GROCERY COMPANY         PO BOX 95620                                                                                                  GRAPEVINE                     TX7609997309038776827     9038776909                         JAMIE STIBBINS                PHCY OPERATIONS SPECIALIST    RX@BROOKSHIRES.COM                                00000000                                                                                                                                            
001793DISCOUNT DRUG MART                 PO BOX 901390                                                                                                 CLEVELAND                     OH4419013903307252340     3307252990                         NANCY BRIDGEMAN                                                                                               00000000                                                                                                                                            
001827HEB GROCERY COMPANY LP             PO BOX 202905                                                                                                 DALLAS                        TX7532029052109389356     2109388832                         KELLY ROMEY                   DIRECTOR                      ROMEY.KELLY@HEB.COM                               00000000                                                                                                                                            
001884UNIV WI HOSPITAL CLINIC            PO BOX 380                                                                                                    MILWAUKEE                     WI5320103806082631288     6082639424                         TINA ZINTZ                                                  CZINTZ@UWHEALTH.ORG                               00000000                                                                                                                                            
001892EPIC PHARMACY NETWORK INC          PO BOX 310526                                                                                                 DES MOINES                    IA5033105268045594597     8045592038                         ANNIE JESSEE                  MEMBER SERVICES MANAGER       AJESSEE@EPICRX.COM                                00000000                                                                                                                                            
001959THE GOLUB CORPORATION              PO BOX 26560                                                                                                  NEW YORK                      NY1008765605183568618     5183566978                         JESSICA B VENNARD             PHCY 3RD PARTY ADMIN          JESSICAVENNARD@PRICECHOPPER.COM                   00000000                                                                                                                                            
001991SAV MOR DRUG STORES                P.O. BOX 72177                                                                                                CLEVELAND                     OH44192    2483057654     2483484316                         YVONNE GALLAGHER              PRESIDENT                     YVONNEG@SAV-MOR.COM                               00000000                                                                                                                                            
002008FOUR B CORP                        PO BOX 870432                                          PRICE CHOPPER/HEN HOUSE/SUN FRESH PHARMACY             KANSAS CITY                   MO6418704329135731294     9135518580                         JANICE ARENSON                3RD PARTY ADMIN               JANICE.ARENSON@BALLSFOODS.COM                     00000000                                                                                                                                            
002024FARM FRESH PHARMACY                PO BOX 776425                                                                                                 CHICAGO                       IL6067764259528284588                                        JESSICA O'CONNELL             MANAGER, MANAGED CARE         SVUPHARMACYMANAGEDCA@SUPERVALU.COM                00000000                                                                                                                                            
002081THE KROGER COMPANY                 PO BOX 842772                                                                                                 BOSTON                        MA0228427726206691877     6205606887                         CARINA KRANZ                  PHARMACY ACCOUNTING MANAGER   CARINA.KRANZ@KROGER.COM                           00000000                                                                                                                                            
002247FAMILY PHARMACY                    1114 W JACKSON                                                                                                OZARK                         MO65721    4175814335     4175815660                         CARRIE TENNIS                 DIRECTOR OF OPERATIONS        CARRIET@THEFAMILYRX.COM                           00000000                                                                                                                                            
002289HARTIG DRUG CO CORP                703 MAIN ST                                            PO BOX 709                                             DUBUQUE                       IA5200407095635888700     5635888750                         CHARLES HARTIG                CEO                           CHARTIG@HARTIGDRUG.COM                            00000000                                                                                                                                            
002370PHARMERICA                         PO BOX 409244                                                                                                 ATLANTA                       GA3038492448133186039     8133186183                         THOMAS CANERIS                AUTHORIZED OFFICIAL           DALE.SHINKLE@PHARMERICA.COM                       00000000                                                                                                                                            
002395PHARMERICA                         PO BOX 409244                                                                                                 ATLANTA                       GA3038492448133186039     8133186183                         THOMAS CANERIS                AUTHORIZED OFFICIAL           DALE.SHINKLE@PHARMERICA.COM                       00000000                                                                                                                                            
002412PHARMERICA                         PO BOX 409244                                                                                                 ATLANTA                       GA3038492448133186039     8133186255                         THOMAS CANERIS                AUTHORIZED OFFICIAL           DALE.SHINKLE@PHARMERICA.COM                       00000000                                                                                                                                            
002438PHARMERICA                         PO BOX 409244                                                                                                 ATLANTA                       GA3038492448133186039     8133186255                         THOMAS CANERIS                AUTHORIZED OFFICIAL           DALE.SHINKLE@PHARMERICA.COM                       00000000                                                                                                                                            
002445DIERBERGS                          PO BOX 775061                                                                                                 SAINT LOUIS                   MO6317750616368121233     6368121603                         CHERYL BENTON                 ACCTS RECEIVABLE MANAGER      BENTONC@DIERBERGS.COM                             00000000                                                                                                                                            
002511THRIFTY DRUG STORE INC             PO BOX 41910                                                                                                  PLYMOUTH                      MN5544109107635134388     7632487581                         KAREN HOAGLAND                PARALEGAL & COMPLIANCE MANAGERKHOAGLAND@THRIFTYWHITE.COM                        00000000                                                                                                                                            
002529RITE AID CORPORATION               PO BOX 371115                                                                                                 PITTSBURGH                    PA15250    7179755937     7179758659                         JENNIFER ZOREK                MNGR OL ADJUDICATION          JZOREK@RITEAID.COM                                00000000                                                                                                                                            
002560OPTION CARE                        11403 BLUEGRASS PKWY STE 400                                                                                  LOUISVILLE                    KY4029923985022660123     5022668517                         SHARON NIEWINSKI              MANAGER                       SHARON.NIEWINSKI@OPTIONCARE.COM                   00000000                                                                                                                                            
002578ONCOLOGY PHARMACY SERVICES INC     PO BOX 731145                                                                                                 DALLAS                        TX7537311459729978087     4694672532                         KIM SHADDOX                   CONTRACT ADMINISTRATION MGR   KIM.SHADDOX@USONCOLOGY.COM                        00000000                                                                                                                                            
002586OMNICARE                           DEPT 781673                                            PO BOX 78000                                           DETROIT                       MI4827816734017702751     4017707108                         SUSAN COLBERT                 DIRECTOR, PAYER RELATIONS     SUSAN.COLBERT@CVSCAREMARK.COM                     00000000                                                                                                                                            
002602RITZMAN PHARMACIES                 2743 GILLCHRIST RD                                     SUITE 100                                              AKRON                         OH44305    3303352318100353303353222                         MICHELLE TROUTMAN             MNGR OF PHCY SYSTEMS          MTROUTMAN@RITZMANRX.COM                           00000000                                                                                                                                            
002610FAIRVIEW PHARMACY SERVICES LLC     PO BOX 1450 NW 7429                                                                                           MINNEAPOLIS                   MN5548574296126727476     6126726659                         RICK THEISEN                                                RTHEISE1@FAIRVIEW.ORG                             00000000                                                                                                                                            
002636RITE AID CORPORATION               200 NEWBERRY COMMONS                                                                                          ETTERS                        PA1731993637179755937     7179758659                         JENNIFER ZOREK                                              JZOREK@RITEAID.COM                                00000000                                                                                                                                            
002643SAKER SHOPRITES                    10 CENTERVILLE RD                                                                                             HOLMDEL                       NJ07733    7325218439     7325218701                         MELISSA FIGUEROA RIVERA       THIRD PARTY ADMIN             MELISSA.FIGUEROA-RIVERA@WAKEFERN.COM              00000000                                                                                                                                            
002651SHOPRITE SUPERMARKETS              PO BOX 29010                                                                                                  NEW YORK                      NY1008790107325218439     7325218701                         MELISSA FIGUEROA RIVERA       3RD PARTY ADMIN               MELISSA.FIGUEROA-RIVERA@WAKEFERN.COM              00000000                                                                                                                                            
002669ZALLIE SUPERMARKETS                1230 BLACKWOOD CLEMENTON RD                                                                                   CLEMENTON                     NJ0802156329085218439     9085218701                         MELISSA FIGUEROA RIVERA       THIRD PARTY ADMIN             MELISSA.FIGUEROA-RIVERA@WAKEFERN.COM              00000000                                                                                                                                            
002685HOMELAND STORES INC                390 NE 36TH                                                                                                   OKC                           OK7312500084052903423     4052903523                         TALITHA NICHOLS               DIRECTOR OF PHARMACY          TNICHOLS@HACRETAIL.COM                            00000000                                                                                                                                            
002719TIMES SUPERMARKET LOCK BOX         PO BOX 29960                                                                                                  HONOLULU                      HI9682023608088310811     8088315888                         SUE ANN YASUOKA               DIR OF PHCY OPERATIONS        SUEANN@TIMES-SUPERMARKET.COM                      00000000                                                                                                                                            
002727MARC GLASSMAN INC                  5841 W 130TH ST                                                                                               CLEVELAND                     OH44130    2162657700     2162657744                         MARY BETH HALLORAN            THIRD PARTY COORDINATOR       MBHALLORAN@MARCS.COM                              00000000                                                                                                                                            
002735SAVE MART SUPERMARKETS             PO BOX 39000                                           FILE 33486 02                                          SAN FRANCISCO                 CA94139    2095746299     2095773916                         LORI MCGUFFEY                 SUPERVISOR, ACCOUNTS RECEIVABLLORI.MCGUFFEY@SAVEMART.COM                        00000000                                                                                                                                            
002750ACME PHARMACY                      PO BOX 567                                                                                                    AKRON                         OH4430905673307332263553733307334410                         JOE LAHOVICH                  DIRECTOR OF PHARMACY          JOE_LAHOVICH@ACMESTORES.COM                       00000000                                                                                                                                            
002768D A W INC                          PO BOX 417579                                                                                                 BOSTON                        MA022417579508429850615   5084298237                         SUSAN COLBERT                 SENIOR DIRECTOR, PAYER RELATIOSUSAN.COLBERT@CVSHEALTH.COM                       00000000                                                                                                                                            
002800HENRY FORD HEALTH SYS PHARMACIES   PO BOX 673101                                                                                                 DETROIT                       MI4826731012487230291     2487230268                         BARBARA BARILE                IT SUPERVISOR                 BBARILE1@HFHS.ORG                                 00000000                                                                                                                                            
002826K VA T FOOD STORES INC             PO BOX 1158                                                                                                   ABINGDON                      VA24212    2766235100     2766235440                         CONNIE REED                   ADMINISTRATIVE ASSISTANT      REEDC@FOODCITY.COM                                00000000                                                                                                                                            
002834FRUTH PHARMACY                     P.O. BOX 791420                                                                                               BALTIMORE                     MD2127914203046751612     3046757338                         MARY C HARRIS                 THIRD PARTY PROCESSOR         MHARRIS@FRUTHPHARMACY.COM                         00000000                                                                                                                                            
002883DALLAS METROCARE SERVICES          1345 RIVERBEND DR. SUITE 200                                                                                  DALLAS                        TX7524752472147436180     2149057537                         MARK EDERY                    PHARMACY DIRECTOR             MARK.EDERY@METROCARESERVICES.ORG                  00000000                                                                                                                                            
002940FALLEYS INC                        PO BOX 414257                                                                                                 KANSAS CITY                   MO641414257                                                  BOB                                                                                                           00000000                                                                                                                                            
002958MSKCC RETAIL PHARMACY              PO BOX 026447                                                                                                 NEW YORK                      NY1008764476468880907     6462272465                         OCTAVIO MARAGNI               SENIOR PHARMACIST             MARAGNIO@MSKCC.ORG                                00000000                                                                                                                                            
002982PEOPLES PHARMACY                   3801 C SOUTH LAMAR BLVD                                                                                       AUSTIN                        TX78704    5124471799     5124415335                         DONNA NICOLOFF                                              DONNAN@PEOPLESRX.COM                              00000000                                                                                                                                            
002999CVS PROCARE PHARMACY INC           PO BOX 99794                                                                                                  CHICAGO                       IL6069675944017651500     4017703094                         SUE COLBERT                                                 SFCOLBERT@CVS.COM                                 00000000                                                                                                                                            
003064ALLINA COMMUNITY PHARMACIES        PO BOX 43                                              STE 10911                                              MINNEAPOLIS                   MN55404    6122625989     6122625988                         SHARON A HANSEN               PATIENT ACCOUNTS MNGR         SHARON.HANSEN@ALLINA.COM                          00000000                                                                                                                                            
003106H AND H DRUG STORES INC            3604 SAN FERNANDO RD                                                                                          GLENDALE                      CA91204    8188445102     8189566695                         ARMAN DERTSALCIAN             VP CONTRACTING                ARMAN@WESTERNDRUG.COM                             00000000                                                                                                                                            
003130HEALTH DELIVERY MANAGEMENT LLC     PO BOX 88273                                                                                                  CHICAGO                       IL6068012733125633225     3125633223                         DEBORAH SLOMAN                ASSIST DIRECTOR               DEBBIE_SLOMAN@RUSH.EDU                            00000000                                                                                                                                            
003147AURORA PHARMACY INC                25430 NETWORK PLACE                                                                                           CHICAGO                       IL6067312549208033263     9204592634                         JOANNE A THEDE                PATIENT FINANCIAL SVCS MNGR   JOANNE.THEDE@AURORA.ORG                           00000000                                                                                                                                            
003171BIG Y FOODS INC                    PO BOX 4541                                                                                                   SPRINGFIELD                   MA01102    4135044204     4135045204                         LEON DREZWIANOWSKI            MNGR OF ACCTS RECEIVABLE      DREZWIAN@BIGY.COM                                 00000000                                                                                                                                            
003189UNITED SUPERMARKETS LLC            PO BOX 655                                                                                                    AMARILLO                      TX79105    8067918113     8067917490                         SANDRA WILSON                 RX AUDIT & COMPLIANCE SPECIALISWILSON@UNITEDTEXAS.COM                           00000000                                                                                                                                            
003205HARMONS PHARMACIES                 3540 S 4000 W                                          STE 430                                                WEST VALLEY CITY              UT8412041208019578454     8019646923                         GREG JONES                    DIRECTOR OF PHARMACY          GREGJONES@HARMONSGROCERY.COM                      00000000                                                                                                                                            
003288NORTHSIDE ADMINISTRATION           1132 TAYLOR ST                                                                                                ZANESVILLE                    OH43701    7404545666     7404527563                         DONNA JASPER                  BILLING OFFICE MANAGER        DJASPER@GENESISHCS.ORG                            00000000                                                                                                                                            
003312COBORNS INC                        1921 COBORN BLVD                                       PO BOX 6146                                            ST CLOUD                      MN56302    3202524222     3202036237                         JOELLYN JOHNSON               ACCOUNTING MANAGER            JOELLYN.JOHNSON@COBORNSINC.COM                    00000000                                                                                                                                            
003338NASH FINCH COMPANY                 36377 TREASURY CENTER                                                                                         CHICAGO                       IL6069463008778953278     3122935425                         ANNA KOPEC                                                                                                    00000000                                                                                                                                            
003353PHARMACY FIRST                     PO BOX 26506                                                                                                  SHAWNEE MISSION               KS6622565069136610298123  9136610297                         ASHLEY OTTE                   DIRECTOR OF RECONCILIATION    AOTTE@PHARMACYFIRST.COM                           00000000                                                                                                                                            
003387MARTINS PHARMACY                   760 W COTTER ST                                                                                               SOUTH BEND                    IN46613    5742391851     5742512446                         MARSHA KAPICA                                                                                                 00000000                                                                                                                                            
003403OMNICARE                           DEPT 781673                                            PO BOX 78000                                           DETROIT                       MI4827816734402694791     4402694790                         SUE COLBERT                   DIRECTOR, PAYER RELATIONS     SUSUAN.COLBERT@CVSCAREMARK.COM                    00000000                                                                                                                                            
003429MCAULEY PHARMACY                   8527 RELIABLE PARKWAY                                                                                         CHICAGO                       IL6068600857347125676     7347128744                         GLENN MONROY                                                                                                  00000000                                                                                                                                            
003452RECEPT PHARMACY LP                 PO BOX 844544                                                                                                 BOSTON                        MA0228445448175720009     8177201039                         TAMMIE MISKIMINS              SENIOR MANAGER                TAMMIE@RECEPTRX.COM                               00000000                                                                                                                                            
003478PROVIDER PAY                       PO BOX 9830                                                                                                   SALT LAKE CITY                UT8410998308017164835     8017164872                         BROOKLYNNE PANDO              IMPLEMENTATION SPECIALIST     ACCOUNTSETUP@PROVIDERPAY.COM                      00000000                                                                                                                                            
003486MERCY PHARMACY                     PO BOX 772929                                                                                                 CHICAGO                       IL6067729293146285606     3146283734                         PATRICK BERRY                 EXEC. DIRECTOR RETAIL PHARMACYPATRICK.BERRY@MERCY.NET                           00000000                                                                                                                                            
003510SHOPRITE FINANCIAL SERVICES        PO BOX 15169                                                                                                  NEWARK                        NJ0719251697325218439     7325218701                         MELISSA FIGUEROA RIVERA       THIRD PARTY ADMIN             MELISSA.FIGUEROA-RIVERA@WAKEFERN.COM              00000000                                                                                                                                            
003543AMERISOURCEBERGEN DRUG CORP ELEVATEPO BOX 731098                                                                                                 DALLAS                        TX7537310987147044495     8454831746                         VINCE LARA                    MANAGER, CENTRAL PAY          VLARA@AMERISOURCEBERGEN.COM                       00000000                                                                                                                                            
003569PILL BOX DRUGS INC                 916 E EVERGREEN BLVD                                                                                          VANCOUVER                     WA98660    5412592900     3608445210                         MANDIE HERRMANN               PHARMACY OPERATIONS ANALYST   MANDIE.HERRMANN@PILLBOXINC.COM                    00000000                                                                                                                                            
003577SPARTAN PHARMACY NORTH             1527 MOMENTUM PLACE                                                                                           CHICAGO                       IL6068953156168788548                                        PAM ROBINSON                                                                                                  00000000                                                                                                                                            
003585M CHEST PHARMACY                   PO BOX 6397                                                                                                   TYLER                         TX75711    9036306000     9035944018                         AMANDA LANDREM                LICENSING AND CONTRACTING     LICENSING@MCHEST.COM                              00000000                                                                                                                                            
003592CARDINAL HEALTH LEADER MEMBER SVCS 1950 N STEMMONS FRWY.                                  STE. 5010 LOCKBOX 843858                               DALLAS                        TX75207    6145533570     6146524391                         AMY HUGHES                    MANAGER                       AMY.HUGHES@CARDINALHEALTH.COM                     00000000                                                                                                                                            
003601POC NETWORK TECHNOLOGIES           PO BOX 54389                                                                                                  LOS ANGELES                   CA9005403896234344628     6234346861                         ANDREA SERATTE                MANAGED CARE CONSULTANT       ASERATTE@POCNETTECH.COM                           00000000                                                                                                                                            
003619SCVH AND HS PHARMACY ADMINISTRATION751 S BASCOM AVE                                       BLDG W                                                 SAN JOSE                      CA95128    4088852300     4088855822                         NARINDER SINGH                DIR OF PHCY SVCS              NARINDER.SINGH@HHS.CO.SCL.CA.US                   00000000                                                                                                                                            
003642ALBERTSONS LLC                     PO BOX 742382                                                                                                 LOS ANGELES                   CA9007423826238693463     6238691278                         REBECCA DAVENPORT             ACCOUNTANT - AR PHARMACY      REBECCA.DAVENPORT@SAFEWAY.COM                     00000000                                                                                                                                            
003650MARICOPA CO SPEC HLTHCARE DISTRICT 2601 E. ROOSEVELT ST.                                                                                         PHOENIX                       AZ85008    6023445253     6023441163                         REBECCA CHAVEZ                PHARMACY BUSNIESS COORDINATOR REBECCA.CHAVEZ@MIHS.ORG                           00000000                                                                                                                                            
003676DOCRX INC                          4636 BIT AND SPUR RD STE A                                                                                    MOBILE                        AL3660826462513429477                                        ANNETTE DOWD                                                DOWDANNETTE@YAHOO.COM                             00000000                                                                                                                                            
003684CVS HEALTH CORP (NAVARRO)          83649 COLLECTION CENTER DRIVE                                                                                 CHICAGO                       IL6069308364017702751     4017707108                         SUSAN COLBERT                 SENIOR DIRECTOR               SUSAN.COLBERT@CVSHEALTH.COM                       00000000                                                                                                                                            
003691AHS RETAIL PHARMACY                7932 SOLUTIONS CENTER DRIVE                                                                                   CHICAGO                       IL6067770095867531115     5867531155                         KENNETH WOODS                 PHARMACY DIRECTOR             KENNETH.WOODS@STJOHN.ORG                          00000000                                                                                                                                            
003718AZALEA HEALTH                      PO DRAWER 817                                                                                                 PALATKA                       FL32178    38632801083345 3863251086                         LARRY PEDERSON                VP/CHIEF PHARMACY OFFICER     LPEDERSON@AZAHEALTH.ORG                           00000000                                                                                                                                            
003726MEDICAP PHARMACIES INCORPORATED    1950 N STEMMONS FRWY.                                  STE. 5010 LOCKBOX 843858                               DALLAS                        TX75207    6145533570     6146524391                         AMY HUGHES                    MANAGER                       AMY.HUGHES@CARDINALHEALTH.COM                     00000000                                                                                                                                            
003734MEDICINE SHOPPE INTERNET INC       1950 N STEMMONS FRWY.                                  STE. 5010 LOCKBOX 843858                               DALLAS                        TX75207    6145533570     6146524391                         AMY HUGHES                    MANAGER                       AMY.HUGHES@CARDINALHEALTH.COM                     00000000                                                                                                                                            
003775GENOA A QOL HEALTHCARE COMPANY LLC PO BOX 77030                                                                                                  MINNEAPOLIS                   MN5548077302532180830     2532174306                         RYAN NIEMEYER                 CONTROLLER                    CONTRACTS@GENOA-QOL.COM                           00000000                                                                                                                                            
003783CIGNA MEDICAL GROUP                25500 N NORTERRA DR                                    PAYMENT CONTROL                                        PHOENIX                       AZ850858200               6232771026                         SARJU PATEL                   PHARMACY AREA MANAGER         SARJU.PATEL@CIGNA.COM                             00000000                                                                                                                                            
003809MARKET BASKET PHARMACIES           PO BOX 974415                                                                                                 DALLAS                        TX7539744154097496405     4097496505                         TERRI GODWIN                  EXECUTIVE ASSISTANT           TGODWIN@MBFOODS.COM                               00000000                                                                                                                                            
003817PROF SPECIALIZED PHARMACIES LLC    2362 GOLDEN MILE HWY                                                                                          PITTSBURGH                    PA15239    7243872260     7243872261                         CYNTHIA VENTRONE              OPERATIONS DIRECTOR           CYNTHIAPSP3@GMAIL.COM                             00000000                                                                                                                                            
003825TOTAL BANK                         PO BOX 166363                                                                                                 MIAMI                         FL3311663633054486500     3054488201                         GABY TORRES                   CONTRACT NEGOTIATIONS         GTORRES@AHCS.COM                                  00000000                                                                                                                                            
003833CONCORD INC                        75 REMITTANCE DR DEPT 1107                                                                                    CHICAGO                       IL6067561727706710657     7703930835                         LISA MCCORD                   CORP SECRETARY TREASURE       LISMC@BELLSOUTH.NET                               00000000                                                                                                                                            
003866APCI                               5601 SHIRLEY DRIVE                                                                                            BESSEMER                      AL35022    2052771007     2052771087                         BRITTNEY WITHERS              CHOICE COORDINATOR            BRITTNEYW@APCINET.COM                             00000000                                                                                                                                            
003899RED CROSS PHARMACY INC             PO BOX 917                                                                                                    MARSHALL                      MO6534009176608865535     6608866320                         SCOTT HARTWIG                 COO CFO                       SCOTTHARTWIG@RCPHARMACY.NET                       00000000                                                                                                                                            
003916ASTRUP DRUG INC                    905 N MAIN ST                                                                                                 AUSTIN                        MN55912    5074337447     5074331632                         DAVID BROOKS                  DISTRICT PHARMACY MANAGER     DAVE.BROOKS@STERLINGDRUG.COM                      00000000                                                                                                                                            
003924CAROLINA SERVICES                  CARE PHARMACIES                                        75 REMITTANCE DR STE 2363                              CHICAGO                       IL6067523637034145434     7034145431                         CHRISTIN SEAVER               DIRECTOR OF TECHNICAL SVCS    CSEAVER@CAREPHARMACIES.COM                        00000000                                                                                                                                            
003932HARRIS COUNTY HOSPITAL DISTRICT    PO BOX 4808                                                                                                   HOUSTON                       TX7721048087136341515     8324872763                         THERESE HOFFMAN               DIRECTOR                      THERESE.HOFFMAN@HARRISHEALTH.ORG                  00000000                                                                                                                                            
003949UNIVERSITY OF UTAH PHARMACIES      PO BOX 841208                                                                                                 LOS ANGELES                   CA9008412088015876334     8015872996                         RUSSELL RAGSDALE              SENIOR PHARMACY DIRECTOR      RUSSELL.RAGSDALE@HSC.UTAH.EDU                     00000000                                                                                                                                            
003957PPOK RXSELECT                      PO BOX 16430                                                                                                  OKLAHOMA CITY                 OK7311324304055575711     4055252196                         MELANIE MAXWELL               SENIOR VICE PRESIDENT         MMAXWELL@PPOK.COM                                 00000000                                                                                                                                            
003973SEIP DRUG LLC                      PO BOX 98                                                                                                     NEW YORK MILLS                MN5656700982183853360     2183854535                         NATHAN L SEIP                 CHIEF MANAGER RPH             SEIPDRUG@EOT.COM                                  00000000                                                                                                                                            
003981IHC PHARMACY SERVICES              PO BOX 30013                                                                                                  SALT LAKE CITY                UT8413000138014424183     8014422867                         BUCK STANFORD RPH             COMMUNITY PHCY OPERATIONS DIR BUCK.STANFORD@IMAIL.ORG                           00000000                                                                                                                                            
003998NYS OFFICE OF MENTAL HEALTH        44 HOLLAND AVE 1ST FLOOR                               FINANCE GROUP ATTN MEDICARE D                          ALBANY                        NY12229    5184730795     5184735167                         DEBORAH DUGAN                 CONTRACT MNGR MEDICARE D      COFGDSD@OMH.STATE.NY.US                           00000000                                                                                                                                            
004006AMERITA INC DALLAS                 8080 TRISTAR DR STE 120                                                                                       IRVING                        TX7506328239728150461245  9728153849                         MICHELE C CAFFEY CPHT         CONTRACTS AND PRICING COORD   MCAFFEY@AMERITAIV.COM                             00000000                                                                                                                                            
004014PATIENT FIRST ACCOUNTING DEPT      5000 COX RD                                                                                                   GLEN ALLEN                    VA23060    8048224383     8049650987                         WARREN BRIDGERS               DIRECTOR OF PHARMACEUTICAL    WARREN.BRIDGERS@PATIENTFIRST.COM                  00000000                                                                                                                                            
004022ARH CENTRAL RETAIL PHARMACY SERVICEPO BOX 602                                                                                                    WEST LIBERTY                  KY4147206026064396915     6067432943                         VICKIE LONG                   REVENUE CYCLE MANAGER         VLONG@ARH.ORG                                     00000000                                                                                                                                            
004039FARMACIAS PLAZA                    PO BOX 246                                                                                                    BAYAMON                       PR00960    7876209600     7877403666                         RIGEL U BEAUCHAMP             PHARMACY MANAGER              RBEAUCHAMP@FARMACIASPLAZA.COM                     00000000                                                                                                                                            
004088US BIOSERVICES                     13105 COLLECTIONS CENTER DR                                                                                   CHICAGO                       IL60693    9723876551     2145728308                         RODNEY WRIGHT                 DIR OF REIMBURSEMENT          RODNEY.WRIGHT@USBIOSERVICES.COM                   00000000                                                                                                                                            
004113MCR HEALTH, INC                    700 8TH AVE W                                          SUITE 101                                              PALMETTO                      FL34221    9417764000266  9418454963                         PATRICK CARNEGIE              PROVIDER ENROLLMENT MANAGER   PCARNEGIE@MCRHS.ORG                               00000000                                                                                                                                            
004121NE OH NEIGHBORHOOD HLTH SVCS       PO BOX 92228                                                                                                  CLEVELAND                     OH44193    2162317700     2162317920                         MIKE SRESHTA                  PHARMACY DIRECTOR             SRESHTA@NCONHEALTH.ORG                            00000000                                                                                                                                            
004146ACCREDO HEALTH GROUP INC           PO BOX 954041                                                                                                 ST LOUIS                      MO6319540419013853600     9013853777                         DANA JOHNSON                  DIRECTOR, REGULATORY MANAGEMENDLJOHNSON@EXPRESS-SCRIPTS.COM                     00000000                                                                                                                                            
004162FAIRVIEW PHARMACY SERVICES LLC     PO BOX 1450 NW 7429                                                                                           MINNEAPOLIS                   MN5548574296126727476     6126726659                         RICK THEISEN                                                RTHEISE1@FAIRVIEW.ORG                             00000000                                                                                                                                            
004170HARPS FOOD STORES INC              PO BOX 48                                                                                                     SPRINGDALE                    AR72765    4797570225     4797513625                         RICHARD F ROBINSON            DIR OF PHCY                   RROBINSON@HARPSFOOD.COM                           00000000                                                                                                                                            
004195LIBERTY                            PO BOX 100103                                                                                                 ATLANTA                       GA30384    7723987355     7723987364                         MICHELLE Z LEFRANCOIS         ASST VP OF LICENSING AND REG  MICHELLE.LEFRANCOIS@LIBERTYMEDICAL.COM            00000000                                                                                                                                            
004204LINCARE INC                        UNITED MEDICAL                                         PO BOX 217                                             WYNNE                         AR72396    8003482273     8702389134                         KIM S SLAGLE                  BUSINESS INFO SPECIALIST      KSLAGLE@LINCARE.COM                               00000000                                                                                                                                            
004212HARVARD VANGUARD MEDICAL ASSOCIATESPHARMACY LOCKBOX                                       PO BOX 3601                                            BOSTON                        MA02241    6179725315     6179725326                         STEPHEN M KOSCHEI             SYSTEMS MNGR                  STEPHEN_KOSCHEI@VMED.ORG                          00000000                                                                                                                                            
004220TOPS MARKETS                       3645 PAYSPHERE CIR                                                                                            CHICAGO                       IL6067400367163655276     7166355992                         STEVE KARPIK                  PHARMACY SYSTEMS COORDINATOR  SKARPIK@TOPSMARKETS.COM                           00000000                                                                                                                                            
004253YVFWC                              PO BOX 1267                                            ATTN: TERESA MANZO-GARZA                               TOPPENISH                     WA98948    5098655898                                        GLEN DAVIS                    COO                           GLEND@YVFWC.ORG                                   00000000                                                                                                                                            
004261VANTAGE RX DISPENSING SERVICES LLC PO BOX 304                                                                                                    ROSEVILLE                     CA95661    8773216337     8773216337                         JOE MORRELL                   DIR OF OPERATIONS             JMORRELL@VANTAGERX.COM                            00000000                                                                                                                                            
004279COUNTRY CHEMISTS INC               2608 ROUTE 112                                                                                                MEDFORD                       NY11763    6314754476     6314754911                         CRYSTAL KOLLER                ADMINISTRATOR                 CKMEDFORD@HOTMAIL.COM                             00000000                                                                                                                                            
004294COLONIAL MANAGEMENT GROUP LP       14050 TOWN LOOP BLVD                                   STE 204                                                ORLANDO                       FL32837    4073517080     4073516930                         LARRY KACZMAREK               CONTROLLER                    LKACZMAREK2@EARTHLINK.NET                         00000000                                                                                                                                            
004311FT. THOMPSON IHS CLINIC            3098 SOLUTIONS CENTER                                                                                         CHICAGO                       IL6067730014059516086                                        JAMES CUMMINGS                PHARMACIST PROGRAM SPECIALIST JAMES.CUMMINGS@IHS.GOV                            00000000                                                                                                                                            
004336KYLE INDIAN HEALTH SERVICES        3103 SOLUTIONS CENTER                                                                                         CHICAGO                       IL606773001                                                  PAMELA SCHWEITZER             PHARMACY CONSULTANT           PAM.SCHWEITZER@IHS.GOV                            00000000                                                                                                                                            
004344QUENTIN N BURDICK COMPREHENSIVE    3105 SOLUTIONS CENTER                                                                                         CHICAGO                       IL606773001                                                  PAMELA SCHWEITZER             PHARMACY CONSULTANT           PAM.SCHWEITZER@IHS.GOV                            00000000                                                                                                                                            
004352LOWER BRULE INDIAN HEALTH SERVICES 3107 SOLUTIONS CENTER                                                                                         CHICAGO                       IL606773001                                                  PAMELA SCHWEITZER             PHARMACY CONSULTANT           PAM.SCHWEITZER@IHS.GOV                            00000000                                                                                                                                            
004360EAGLE BUTTE IHS HOSPITAL           3109 SOLUTIONS CENTER                                                                                         CHICAGO                       IL6067730014059516086                                        JAMES CUMMINGS                PHARMACIST PROGRAM SPECIALIST JAMES.CUMMINGS@IHS.GOV                            00000000                                                                                                                                            
004378MCLAUGHLIN IHS CLINIC              3111 SOLUTIONS CENTER                                                                                         CHICAGO                       IL606773001                                                  PAMELA SCHWEITZER             PHARMACY CONSULTANT           PAM.SCHWEITZER@IHS.GOV                            00000000                                                                                                                                            
004385FT. YATES IHS HOSPITAL             3113 SOLUTIONS CENTER                                                                                         CHICAGO                       IL606773001                                                  PAMELA SCHWEITZER             PHARMACY CONSULTANT           PAM.SCHWEITZER@IHS.GOV                            00000000                                                                                                                                            
004393WAGNER INDIAN HEALTH CARE          3116 SOLUTIONS CENTER                                                                                         CHICAGO                       IL606773001                                                  PAMELA SCHWEITZER             PHARMACY CONSULTANT           PAM.SCHWEITZER@IHS.GOV                            00000000                                                                                                                                            
004402PINE RIDGE INDIAN HOSPITAL         3117 SOLUTIONS CENTER                                                                                         CHICAGO                       IL606773001                                                  PAMELA SCHWEITZER             PHARMACY CONSULTANT           PAM.SCHWEITZER@IHS.GOV                            00000000                                                                                                                                            
004410WANBLEE INDIAN HEALTH CENTER       3120 SOLUTIONS CENTER                                                                                         CHICAGO                       IL606773001                                                  PAMELA SCHWEITZER             PHARMACY CONSULTANT           PAM.SCHWEITZER@IHS.GOV                            00000000                                                                                                                                            
004428ROSEBUD INDIAN HOSPITAL            3121 SOLUTIONS CENTER                                                                                         CHICAGO                       IL606773001                                                  PAMELA SCHWEITZER             PHARMACY CONSULTANT           PAM.SCHWEITZER@IHS.GOV                            00000000                                                                                                                                            
004435SISSETON INDIAN HOSPITAL           3124 SOLUTIONS CENTER                                                                                         CHICAGO                       IL606773001                                                  PAMELA SCHWEITZER             PHARMACY CONSULTANT           PAM.SCHWEITZER@IHS.GOV                            00000000                                                                                                                                            
004451RAPID CITY INDIAN HEALTH           3130 SOLUTIONS CENTER                                                                                         CHICAGO                       IL606773001                                                  PAMELA SCHWEITZER             PHARMACY CONSULTANT           PAM.SCHWEITZER@IHS.GOV                            00000000                                                                                                                                            
004469BEMIDJI AREA RED LAKE              3136 SOLUTIONS CENTER                                                                                         CHICAGO                       IL6067730014059516000     4059516057                         JAMES CUMMINGS                PHARMACIST PROGRAM SPECIALIST JAMES.CUMMINGS@IHS.GOV                            00000000                                                                                                                                            
004477BEMIDJII AREA WHITE EARTH          3147 SOLUTIONS CENTER                                                                                         CHICAGO                       IL6067730014059516000     4059516057                         JAMES CUMMINGS                PHARMACIST PROGRAM SPECIALIST JAMES.CUMMINGS@IHS.GOV                            00000000                                                                                                                                            
004484BEMIDJI AREA CASS LAKE             3158 SOLUTIONS CENTER                                                                                         CHICAGO                       IL6067730014059516000     4059516057                         JAMES CUMMINGS                PHARMACIST PROGRAM SPECIALIST JAMES.CUMMINGS@IHS.GOV                            00000000                                                                                                                                            
004501SANTA ANA HEALTH CENTER            P.O. BOX 31001-0676                                                                                           PASADENA                      CA911100676                                                  PAMELA SCHWEITZER             PHARMACY CONSULTANT           PAM.SCHWEITZER@IHS.GOV                            00000000                                                                                                                                            
004519ZIA HEALTH CENTER                  P.O. BOX 31001-0677                                                                                           PASADENA                      CA911100677                                                  PAMELA SCHWEITZER             PHARMACY CONSULTANT           PAM.SCHWEITZER@IHS.GOV                            00000000                                                                                                                                            
004527MESCALERO PHS INDIAN HOSPITAL      PO BOX 31001-0660                                                                                             PASADENA                      CA911100660                                                  PAMELA SCHWEITZER             PHARMACY CONSULTANT           PAM.SCHWEITZER@IHS.GOV                            00000000                                                                                                                                            
004534SAN XAVIER INDIAN HEALTH CENTER    PO BOX 31001-0661                                                                                             PASADENA                      CA9111006615202952550                                        DIANE SHANLEY                 DEPUTY CEO                    DIANE.SHANLEY@IHS.GOV                             00000000                                                                                                                                            
004542SELLS INDIAN HOSPITAL              PO BOX 31001-0662                                                                                             PASADENA                      CA9111006625203837350                                        DIANE SHANLEY                 DEPUTY CEO                    DIANE.SHANLEY@IHS.GOV                             00000000                                                                                                                                            
004550SANTA ROSA INDIAN HEALTH CENTER    PO BOX 31001-0663                                                                                             PASADENA                      CA9111006635203612261                                        DIANE SHANLEY                 DEPUTY CEO                    DIANE.SHANLEY@IHS.GOV                             00000000                                                                                                                                            
004568SANTA FE INDIAN HOSPITAL           PO BOX 31001-0664                                                                                             PASADENA                      CA9111006644059516000                                        JAMES CUMMINGS                PHARMACIST PROGRAM SPECIALIST JAMES.CUMMINGS@IHS.GOV                            00000000                                                                                                                                            
004576JICARILLA INDIAN HOSPITAL          PO BOX 31001-0665                                                                                             PASADENA                      CA911100665                                                  PAMELA SCHWEITZER             PHARMACY CONSULTANT           PAM.SCHWEITZER@IHS.GOV                            00000000                                                                                                                                            
004583ZUNI INDIAN HOSPITAL               PO BOX 31001-0666                                                                                             PASADENA                      CA911100666                                                  PAMELA SCHWEITZER             PHARMACY CONSULTANT           PAM.SCHWEITZER@IHS.GOV                            00000000                                                                                                                                            
004600UTE MOUNTAIN UTE HEALTH CENTER     PO BOX 31001-0668                                                                                             PASADENA                      CA911100668                                                  PAMELA SCHWEITZER             PHARMACY CONSULTANT           PAM.SCHWEITZER@IHS.GOV                            00000000                                                                                                                                            
004618SANTA CLARA HEALTH CENTER          PO BOX 31001-0669                                                                                             PASADENA                      CA911100669                                                  PAMELA SCHWEITZER             PHARMACY CONSULTANT           PAM.SCHWEITZER@IHS.GOV                            00000000                                                                                                                                            
004626TAOS/PICURIS HEALTH CENTER         PO BOX 31001-0670                                                                                             PASADENA                      CA911100670                                                  PAMELA SCHWEITZER             PHARMACY CONSULTANT           PAM.SCHWEITZER@IHS.GOV                            00000000                                                                                                                                            
004633ALBUQUERQUE INDIAN HOSPITAL        PO BOX 31001-0675                                                                                             PASADENA                      CA9111006754059516000     4059516057                         JAMES CUMMINGS                PHARMACIST PROGRAM SPECIALIST JAMES.CUMMINGS@IHS.GOV                            00000000                                                                                                                                            
004641PHOENIX INDIAN MEDICAL CENTER      PO BOX 31001-0698                                                                                             PASADENA                      CA911100698                                                  PAMELA SCHWEITZER             PHARMACY CONSULTANT           PAM.SCHWEITZER@IHS.GOV                            00000000                                                                                                                                            
004659PHS COLORADO RIVER                 PO BOX 31001-0699                                                                                             PASADENA                      CA911100699                                                  PAMELA SCHWEITZER             PHARMACY CONSULTANT           PAM.SCHWEITZER@IHS.GOV                            00000000                                                                                                                                            
004667PHS PEACH SPRINGS                  PO BOX 31001-0700                                                                                             PASADENA                      CA911100700                                                  PAMELA SCHWEITZER             PHARMACY CONSULTANT           PAM.SCHWEITZER@IHS.GOV                            00000000                                                                                                                                            
004675PHS FT. YUMA                       PO BOX 31001-0701                                                                                             PASADENA                      CA911100701                                                  PAMELA SCHWEITZER             PHARMACY CONSULTANT           PAM.SCHWEITZER@IHS.GOV                            00000000                                                                                                                                            
004690PHS UNITAH & OURAY                 PO BOX 31001-0703                                                                                             PASADENA                      CA911100703                                                  PAMELA SCHWEITZER             PHARMACY CONSULTANT           PAM.SCHWEITZER@IHS.GOV                            00000000                                                                                                                                            
004709HOPI HEALTH CARE CENTER            PO BOX 31001-0704                                                                                             PASADENA                      CA911100704                                                  PAMELA SCHWEITZER             PHARMACY CONSULTANT           PAM.SCHWEITZER@IHS.GOV                            00000000                                                                                                                                            
004717SOUTHERN BANDS HEALTH CENTER       PO BOX 31001-0707                                                                                             PASADENA                      CA911100707                                                  PAMELA SCHWEITZER             PHARMACY CONSULTANT           PAM.SCHWEITZER@IHS.GOV                            00000000                                                                                                                                            
004725PHS WHITERIVER                     PO BOX 31001-0708                                                                                             PASADENA                      CA911100708                                                  PAMELA SCHWEITZER             PHARMACY CONSULTANT           PAM.SCHWEITZER@IHS.GOV                            00000000                                                                                                                                            
004732WARM SPRINGS HEALTH AND WELLNESS CTPO BOX 31001-1143                                                                                             PASADENA                      CA911101143                                                  PAMELA SCHWEITZER             PHARMACY CONSULTANT           PAM.SCHWEITZER@IHS.GOV                            00000000                                                                                                                                            
004740GALLUP INDIAN MEDICAL CENTER       PO BOX 31001-0650                                                                                             PASADENA                      CA911100650                                                  PAMELA SCHWEITZER             PHARMACY CONSULTANT           PAM.SCHWEITZER@IHS.GOV                            00000000                                                                                                                                            
004766NORTHERN NAVAJO MEDICAL CENTER     PO BOX 31001-0652                                                                                             PASADENA                      CA911100652                                                  PAMELA SCHWEITZER             PHARMACY CONSULTANT           PAM.SCHWEITZER@IHS.GOV                            00000000                                                                                                                                            
004774ACOMA CANONCITO LAGUNA HOSPITAL    PO BOX 31001-0659                                                                                             PASADENA                      CA9111006594059516000     4059516057                         JAMES CUMMINGS                PHARMCIST PROGRAM SUPPORT     JAMES.CUMMINGS@IHS.GOV                            00000000                                                                                                                                            
004781YAKAMA INDIAN HEALTH CENTER        PO BOX 31001-1118                                                                                             PASADENA                      CA911101118                                                  PAMELA SCHWEITZER             PHARMACY CONSULTANT           PAM.SCHWEITZER@IHS.GOV                            00000000                                                                                                                                            
004799CHEMAWA INDIAN HEALTH CENTER       PO BOX 31001-1126                                                                                             PASADENA                      CA9111011264059516000                                        JAMES CUMMINGS                PHARMACIST PROGRAM SPECIALIST JAMES.CUMMINGS@IHS.GOV                            00000000                                                                                                                                            
004808DAVID C WYNECOOP                   PO BOX 31001-1128                                                                                             PASADENA                      CA9111011284059516086                                        JAMES CUMMINGS                PHARMACIST PROGRAM SPECIALIST JAMES.CUMMINGS@IHS.GOV                            00000000                                                                                                                                            
