9999999M090901202042    Copyright 2020 National Council for Prescription Drug Programs, All Rights Reserved                                                                                                                                                                                                                                                                                                                                                                                                         
000026SAV MOR DRUG STORES                25625 SOUTHFIELD ROAD                                  SUITE 206                                              SOUTHFIELD                    MI48075    2483481570202  2483484316          383274808      YVONNE GALLAGHER              EXECUTIVE VICE PRESIDENT      CONTACT@SAV-MOR.COM                               00000000                                                                                                                                            
000034CORPORATE REMIT                    401 FORD STREET                                        P.O. BOX 151                                           FORD CITY                     PA16226    7247631201012507247634040          251258407      DAVID CIPPEL                  PRESIDENT                     JAMIED@KLINGENSMITHS.COM                          00000000                                                                                                                                            
000067INMAR RX SOLUTIONS, INC.           635 VINE ST.                                                                                                  WINSTON SALEM                 NC27101    3366312958     3367701996          351816480      TOM MARTIN                    MANAGER, HEALTHCARE           TOM.MARTIN@INMAR.COM                              00000000                                                                                                                                            
000075SCRIPTPRO                          5828 REEDS RD                                                                                                 MISSION                       KS6620227409133841008                         742838351      EILEEN RAINIS                 DIRECTOR, THIRD PARTY ADMIN   ERAINIS@SCRIPTPRO.COM                             00000000                                                                                                                                            
000091OUTPATIENT PHARMACY AND WESTWOOD   PO BOX 955772                                                                                                 ST LOUIS                      MO6319557729135882370     9135882385          481202402      RICK COULDRY                  DIRECTOR OF PHARMACY          RCOULDRY@KUMC.ORG                                 00000000                                                                                                                                            
000109PROVIDERPAY REMIT                  3949 S 700 E STE 320                                                                                          SALT LAKE CITY                UT8410724438017164857     8017164872          263458261      SAMANTHA ADAMS                ACCOUNT SERVICES              ACCOUNTSETUP@PROVIDERPAY.COM                      00000000                                                                                                                                            
000117COMPLETE CLAIMS PROCESSING INC     2980 N BEVERLY GLEN CIR STE 100                                                                               LOS ANGELES                   CA9007717353104749809     8884318819                         LYNETTE GEBLER                DIRECTOR, PHARMACY COMPLIANCE SUPPORTINGDOCUMENTS@PTLCENTRAL.COM                00000000                                                                                                                                            
000125FRUTH PHARMACY INC                 PO BOX 791420                                                                                                 BALTIMORE                     MD2127914203046751612102  3046757338          550681886      LUCILLE CASSELL               TREASURER                     SCASSELL@FRUTHPHARMACY.COM                        00000000                                                                                                                                            
000166BALLS FOUR B CORP                  5300 SPEAKER RD                                                                                               KANSAS CITY                   KS6610610509135731294     9135518580          480894902      LISA MARTIN                   3RD PARTY ADMIN.              LISA.MARTIN@BALLSFOODS.COM                        00000000                                                                                                                                            
000182VERIDIKAL                          PO BOX 3106                                                                                                   SCOTTSDALE                    AZ852713106480636183013   4806368700          271313732      LISA M. RIDING                PRINCIPAL                     LISARIDING@VERIDIKAL.COM                          00000000                                                                                                                                            
000190THE RESOURCE CENTER PHARMACY       200 DUNHAM AVE                                                                                                JAMESTOWN                     NY1470125287166611001                         160850407      SUZETTE SMITH                 FINANCE MANAGER               SUZETTE.SMITH@RESOURCECENTER.ORG                  00000000                                                                                                                                            
000208ERECON/ENSUREPAY                   PO BOX 16430                                                                                                  OKLAHOMA CITY                 OK73113    4055575700     4055252196          731250178      MELANIE MAXWELL               SENIOR VICE PRESIDENT         MMAXWELL@PPOK.COM                                 00000000                                                                                                                                            
000232RESOLVERX                          5601 SHIRLEY PARK DR                                                                                          BESSEMER                      AL35022340220527710774    2052771087                         BRITTNEY WITHERS              CHOICE COORDINATOR            BRITTNEYW@APCINET.COM                             00000000                                                                                                                                            
000240MSKCC RETAIL PHARMACY              PO BOX 026447                                                                                                 NEW YORK                      NY1008764472126398464     6462272465          131924236      SUSAN MURILLO                 SUPERVISING PHARMACIST        MURILLOS@MSKCC.ORG                                00000000                                                                                                                                            
000257PRESBYTERIAN MEDICAL SERVICES INC  PO BOX 2267                                                                                                   SANTA FE                      NM8750422675059825565     5059868299          850206810      STEPHEN QUESADA               DIRECTOR OF PHARMACY AND LABORSTEPHEN.QUESADA@PMSNM.ORG                         00000000                                                                                                                                            
000265UCSD AMBULATORY CARE PHARMACY      PO BOX 743475                                                                                                 LOS ANGELES                   CA9007434756195436194     6195435829          371696000      GARY HAGNEY                   DIRECTOR, UCSD AMCARE PHARMACYGHAGNEY@UCSD.EDU                                  00000000                                                                                                                                            
000273UCSD MEDICAL CENTER RETAIL PHARMACYPO BOX 743475                                                                                                 LOS ANGELES                   CA9007434756195436194     6195435823          330599494      GARY HAGNEY                   DIRECTOR,UCSD AMCARE PHARMACY GHAGNEY@UCSD.EDU                                  00000000                                                                                                                                            
000281COMMUNITY HEALTH CENTERS, INC.     110 S WOODLAND ST                                                                                             WINTER GARDEN                 FL34787354640790588271001 4079058998          591480970      DEBRA ANDREE                  VICE PRESIDENT / CHIEF MEDICALMANAGEDCARE@CHCFL.ORG                             00000000                                                                                                                                            
000299SANTO DOMINGO PUEBLO HEALTH CENTER PO BOX 1024                                                                                                   ALBUQUERQUE                   NM8710310245054653073173                      275303526      KATHY CALABAZA                PHARMACY TECH/BILLING TECH    KCALABAZA@KP-HC.ORG                               00000000                                                                                                                                            
000307LIBRARX DIRECT                     PO BOX 26546                                                                                                  SHAWNEE MISSION               KS6622565469136610298     9136610297                         AMANDA SCHAEUBLE              VP OF OPERATIONS              ASCHAEUBLE@PHARMACYFIRST.COM                      00000000                                                                                                                                            
9999999M090901202042    Copyright 2020 National Council for Prescription Drug Programs, All Rights Reserved                                                                                                                                                                                                                                                                                                                                                                                                         
