9999999M100901202093946 Copyright 2020 National Council for Prescription Drug Programs, All Rights Reserved                                           
0100052AL108930              1231202000000000                                                                                                         
0100381AL105940              1231202000000000                                                                                                         
0100622AL106310              1231202000000000                                                                                                         
0100886AL112319              1231202000000000                                                                                                         
0100949AL108215              1231202000000000                                                                                                         
0101143AL101645              1231202000000000                                                                                                         
0101155AL105657              1231202000000000                                                                                                         
0101232AL102740              1231202000000000                                                                                                         
0101369AL101020              1231202000000000                                                                                                         
0101511AL104530              1231202000000000                                                                                                         
0101535AL110032              1231202000000000                                                                                                         
0101775AL110533              1231202000000000                                                                                                         
0101915AL107200              1231202000000000                                                                                                         
0102020AL110549              1231202000000000                                                                                                         
0102044AL101410              1231202000000000                                                                                                         
0102309AL102610              1231202000000000                                                                                                         
0102311AL110801              1231202000000000                                                                                                         
0102323AL110823              1231202000000000                                                                                                         
0102397AL111553              1231202000000000                                                                                                         
0102436AL111011              1231202000000000                                                                                                         
9999999M100901202093946 Copyright 2020 National Council for Prescription Drug Programs, All Rights Reserved                                           
