9999999M0709012020204698Copyright 2020 National Council for Prescription Drug Programs, All Rights Reserved                                           
01000523336C0003X0100000000                                                                                                                           
0100052333600000X  00000000                                                                                                                           
01003813336C0003X0100000000                                                                                                                           
0100381333600000X  00000000                                                                                                                           
0100622332BX2000X1900000000                                                                                                                           
01006223336C0004X1800000000                                                                                                                           
0100622332B00000X1300000000                                                                                                                           
01006223336C0003X0100000000                                                                                                                           
0100622333600000X  00000000                                                                                                                           
01008863336C0003X0100000000                                                                                                                           
0100886333600000X  00000000                                                                                                                           
0100949332B00000X1300000000                                                                                                                           
01009493336C0003X0100000000                                                                                                                           
0100949333600000X  00000000                                                                                                                           
01011433336C0004X1800000000                                                                                                                           
0101143332B00000X1300000000                                                                                                                           
01011433336C0003X0100000000                                                                                                                           
0101143333600000X  00000000                                                                                                                           
0101155332B00000X1300000000                                                                                                                           
01011553336C0003X0100000000                                                                                                                           
9999999M0709012020204698Copyright 2020 National Council for Prescription Drug Programs, All Rights Reserved                                           
