9999999M1309012020200171Copyright 2020 National Council for Prescription Drug Programs, All Rights Reserved                                                                                                                                                                                                                                                                                                                                                                                                             
0100052YY1.0  2016YN00000000                                                            YNSAMMY SHUNNARAH                                             10192016SAMMY SHUNNARAH                                             SMITHERMAN'S PHARMACY                                       703 MAIN STREET                                                                                               MONTEVALLO                    AL35115    14574921832056650940SMITHERMANSPHARM@BELLSOUTH.NET                         
0100052YY1.0  2017YN00000000                                                            YNSAMMY SHUNNARAH                                             05092017SAMMY SHUNNARAH                                             SMITHERMANS PHARMACY                                        703 MAIN STREET                                                                                               MONTEVALLO                    AL35115    14574921832056650940SMITHERMANSPHARM@BELLSOUTH.NET                         
0100052YY1.0  2018YN00000000                                                            YNSAMMY SHUNNARAH                                             03202018SAMMY SHUNNARAH                                             SMITHERMANS PHARMACY                                        703 MAIN STREET                                                                                               MONTEVALLO                    AL35115    14574921832056650940SMITHERMANSPHARM@BELLSOUTH.NET                         
0100052YY1.0  2019YN00000000                                                            YNSAMMY SHUNNARAH                                             01292019SAMMY SHUNNARAH                                             SMITHERMANS PHARMACY                                        703 MAIN STREET                                                                                               MONTEVALLO                    AL35115    14574921832056650940SMITHERMANSPHARM@BELLSOUTH.NET                         
0100052YY1.0  2020YN00000000                                                            YNSAMMY SHUNNARAH                                             07232020SAMMY SHUNNARAH                                             SMITHERMANS PHARMACY                                        703 MAIN STREET                                                                                               MONTEVALLO                    AL35115    14574921832056650940SMITHERMANSPHARM@BELLSOUTH.NET                         
0100381YY1.0  2016YN00000000                                                            YNHARRIET SIMPSIRIDIS                                         11162017HARRIET SIMPSIRIDIS                                         LADAS PHARMACY                                              1050 SOUTH BROAD STREET                                                                                       MOBILE                        AL36603    16190229282514410012HSIMPSIRIDIS@BELLSOUTH.NET                             
0100381YY1.0  2017YN00000000                                                            YNHARRIET LADAS                                               04042017HARRIET LADAS                                               LADAS PHARMACY                                              1050 SOUTH BROAD STREET                                                                                       MOBILE                        AL36603    16190229282514410012HSIMPSIRIDIS@BELLSOUTH.NET                             
0100381YY1.0  2018YN00000000                                                            YNHARRIET LADAS                                               11062018HARRIET LADAS                                               LADAS PHARMACY, INC.                                        1050 SOUTH BROAD STREET                                                                                       MOBILE                        AL36603    16190229282514410012HARRIETLADAS@LADASPHARMACY.COM                         
0100381YY1.0  2019YN00000000                                                            YNHARRIET LADAS                                               12202019HARRIET LADAS                                               LADAS PHARMACY                                              1050 SOUTH BROAD STREET                                                                                       MOBILE                        AL36603    16190229282514410012HARRIETLADAS@LADASPHARMACY.COM                         
0100381YY1.0  2020YN00000000                                                            YNHARRIET LADAS                                               01242020HARRIET LADAS                                               LADAS PHARMACY                                              1050 SOUTH BROAD STREET                                                                                       MOBILE                        AL36603    16190229282514410012HARRIETLADAS@LADASPHARMACY.COM                         
0100622YY1.0  2016NY10082015ACHC                                                        YNJESSICA WHITE                                               01052017JESSICA WHITE                                               MCCONAGHY DRUG STORE INC                                    5565 HWY 43                                                                                                   SATSUMA                       AL36572    13665412032516757785JESSICA.WHITE@MCCONAGHYDRUGS.COM                       
0100622YY1.0  2017YN00000000                                                            YNJESSICA WHITE                                               10242017JESSICA WHITE                                               MCCONAGHY DRUG STORES, INC.                                 5565 HWY 43                                            PO BOX 488                                             SATSUMA                       AL36572    13665412032516757785JESSICA.WHITE@MCCONAGHYDRUGS.COM                       
0100622YY1.0  2018YN00000000                                                            YNJESSICA WHITE                                               01102019JESSICA WHITE                                               MCCONAGHY DRUG STORES, INC.                                 5565 HWY 43                                            PO BOX 488                                             SATSUMA                       AL36572    13665412032516757785JESSICA.WHITE@MCCONAGHYDRUGS.COM                       
0100886YY1.0  2016YN00000000                                                            YNF. HEATH CHITTAM                                            02162017F. HEATH CHITTAM                                            TENNESSEE VALLEY HEALTHCARE DBA LIMESTONE DRUG              200 WEST MARKET ST                                                                                            ATHENS                        AL35611    14775680872562322422HCHITTAM@AOL.COM                                       
0100886YY1.0  2017YN00000000                                                            YNF HEATH CHITTAM                                             09122017F HEATH CHITTAM                                             LIMESTONE DRUG                                              200 WEST MARKET ST                                                                                            ATHENS                        AL35611    14775680872562322422HCHITTAM@AOL.COM                                       
0100886YY1.0  2018YN00000000                                                            YNF. HEATH CHITTAM                                            05102018F. HEATH CHITTAM                                            LIMESTONE DRUG                                              200 WEST MARKET ST                                                                                            ATHENS                        AL35611    14775680872562322422HCHITTAM@AOL.COM                                       
0100886YY1.0  2019YN00000000                                                            YNF. HEATH CHITTAM                                            10092019F. HEATH CHITTAM                                            LIMESTONE DRUG                                              200 W MARKET ST                                                                                               ATHENS                        AL35611    14775680872562323811HCHITTAM@AOL.COM                                       
0100949YY1.0  2016YN00000000                                                            YNMARK R TOW                                                  11222016MARK R TOW                                                  PROPST DISCOUNT DRUGS                                       717 PRATT AVE NE                                                                                              HUNTSVILLE                    AL35801    12957130222565391012STARRXOPS@GMAIL.COM                                    
0100949YY1.0  2017YN00000000                                                            YNMARK R TOW                                                  09092017MARK R TOW DIRECTOR OF PHARMACY                             PROPST DISCOUNT DRUGS                                       717 PRATT AVE NE                                                                                              HUNTSVILLE                    AL35801    12957130222565391012PROPSTRX@GMAIL.COM                                     
0100949YY1.0  2018YN00000000                                                            YNMARK TOW                                                    11202018MARK TOW                                                    PROPST DISCOUNT DRUGS INC.                                  717 PRATT AVE NE                                                                                              HUNTSVILLE                    AL35801    12957130222565391012STARRXOPS@GMAIL.COM                                    
9999999M1309012020200171Copyright 2020 National Council for Prescription Drug Programs, All Rights Reserved                                                                                                                                                                                                                                                                                                                                                                                                             
