9999999M060901202070268 Copyright 2020 National Council for Prescription Drug Programs, All Rights Reserved                                           
0100052AL100000835           00000000                                                                                                                 
0100381AL100000306           00000000                                                                                                                 
0100622AL100000143           00000000                                                                                                                 
0100886AL100003506           00000000                                                                                                                 
0100949AL100003519           00000000                                                                                                                 
0101143AL100001098           00000000                                                                                                                 
0101155AL100003650           00000000                                                                                                                 
0101232AL100000009           00000000                                                                                                                 
0101369AL100002472           00000000                                                                                                                 
0101511AL100001656           00000000                                                                                                                 
0101535AL100001241           00000000                                                                                                                 
0101775AL228                 00000000                                                                                                                 
0101915AL100000485           00000000                                                                                                                 
0102020AL157626              00000000                                                                                                                 
0102044AL100000555           00000000                                                                                                                 
0102309AL100000181           00000000                                                                                                                 
0102397AL100003067           00000000                                                                                                                 
0102436AL100002425           00000000                                                                                                                 
0102462AL100003743           00000000                                                                                                                 
0102614AL100000243           00000000                                                                                                                 
9999999M060901202070268 Copyright 2020 National Council for Prescription Drug Programs, All Rights Reserved                                           
