9999999M0309012020447   Copyright 2020 National Council for Prescription Drug Programs, All Rights Reserved                                                                                                                                                                                                                                                                                                                                                                                                         
000018WINN DIXIE STORES INC              PHARMACY ACCOUNTS RECEIVABLES                          PO BOX 850001                                          ORLANDO                       FL3288502319043706872     9047835089                         LAWANDA SCIBERRAS             ACCOUNTING SUPERVISOR         LAWANDASCIBERRAS@WINN-DIXIE.COM                   00000000                                                                                                                                            
000026NEW ALBERTSONS LP                  P.O. BOX 742382                                                                                               LOS ANGELES                   CA9007423826238693463     6238691278                         REBECCA DAVENPORT             ACCOUNTANT - AR PHARMACY      REBECCA.DAVENPORT@SAFEWAY.COM                     00000000                                                                                                                                            
000042COSTCO PHARMACIES                  PO BOX 34300                                                                                                  SEATTLE                       WA9812413004253132892     4253136595                         MICHAEL MASTROMONICA          AVP PHARMACY SERVICES         MMASTROMONICA@COSTCO.COM                          00000000                                                                                                                                            
000141HY VEE INC                         PO BOX 310442                                                                                                 DES MOINES                    IA5033104427122256230     7122255700                         ROBERT EGELAND                VICE PRESIDENT, PHARMACY      BEGELAND@HY-VEE.COM                               00000000                                                                                                                                            
000166RITE AID CORPORATION               PO BOX 371115                                                                                                 PITTSBURGH                    PA1525071157177612633     7179758659                         JENNIFER ZOREK                MNGR OL ADJUDICATION          JZOREK@RITEAID.COM                                00000000                                                                                                                                            
000224LONGS DRUG STORES                  83649 COLLECTION CENTER DR                                                                                    CHICAGO                       IL6069308364017651500     4017707108                         SUSAN COLBERT                 DIRECTOR, PAYER RELATIONS     SUSAN.COLBERT@CVSCAREMARK.COM                     00000000                                                                                                                                            
000265CARRS QUALITY CENTER               PO BOX 742382                                                                                                 LOS ANGELES                   CA9007423826238693463     6238691278                         REBECCA DAVENPORT             ACCOUNTANT - AR PHARMACY      REBECCA.DAVENPORT@SAFEWAY.COM                     00000000                                                                                                                                            
000281GIANT EAGLE INC                    LOCKBOX 643559                                                                                                PITTSBURGH                    PA1526435594129681550     4129681727                         DEBRA KRASNOW                 DIR MANAGED CARE              DEBBIE.KRASNOW@GIANTEAGLE.COM                     00000000                                                                                                                                            
000307KMART CORPORATION                  12658 COLLECTIONS CENTER DRIVE                                                                                CHICAGO                       IL6069301268472864102     8472861603                         JENNIFER SPEARES              SR DIRECTOR OF PHARMACY COMPLIJENNIFER.SPEARES@SEARSHC.COM                      00000000                                                                                                                                            
000315PUBLIX SUPER MARKETS INC           PO BOX 116181                                                                                                 ATLANTA                       GA3036861818636881188     8636165846                         KIMBERLY BONE                 MNGR OF MANAGED CARE          RXMANAGEDCARE@PUBLIX.COM                          00000000                                                                                                                                            
000331RALEY'S THIRD PARTY RECEIVABLES    500 W CAPITOL AVE                                                                                             WEST SACRAMENTO               CA9560529699163736429     9163766681                         CYNDY BRADSHAW                PHARMACY A/R SUPERVISOR, PHARMCBRADSHA@RALEYS.COM                               00000000                                                                                                                                            
000349ALBERTSONS COMPANIES INC           PO BOX 742382                                                                                                 LOS ANGELES                   CA9007423826238693463     6238691278                         REBECCA DAVENPORT             ACCOUNTANT - AR PHARMACY      REBECCA.DAVENPORT@SAFEWAY.COM                     00000000                                                                                                                                            
000356CVS HEALTH CORP (TARGET)           83649 COLLECTION CENTER DRIVE                                                                                 CHICAGO                       IL6069308364017702751     4017707108                         SUSAN COLBERT                 SR. DIRECTOR, PAYER RELATIONS SUSAN.COLBERT@CVSHEALTH.COM                       00000000                                                                                                                                            
000364SUPERVALU PHARMACIES INC           PO BOX 776425                                                                                                 CHICAGO                       IL6067764256517794023     6517792023                         JESSICA O'CONNELL             MANAGER, MANAGED CARE         SVUPHARMACYMANAGEDCA@SUPERVALU.COM                00000000                                                                                                                                            
000372AHOLD USA PHARMACY                 3226 PAYSPHERE CIR                                                                                            CHICAGO                       IL6067400327179601700                                        TAMMIE COULSTON               MGR ACCOUNTS RECEIVABLE       TAMMIE.COULSTON@AHOLD.COM                         00000000                                                                                                                                            
000406MID ATLANTIC GROUP                 GREAT ATLANTIC PCF TEA CO                              PO BOX 23069                                           NEWARK                        NJ0718900694103559400     4103546291                         BOB MCQUITTY                                                                                                  00000000                                                                                                                                            
000414BIMART CORPORATION                 PO BOX 2310                                                                                                   EUGENE                        OR97402019954134406812144 5416877653                         MEGAN COLLINS                 PHCY SYSTEMS SPECIALIST       MEGAN.COLLINS@BIMART.COM                          00000000                                                                                                                                            
000422SCHNUCK MARKETS INC                PO BOX 952018                                                                                                 SAINT LOUIS                   MO6319520183149944902     3149944586                         LISA HERZWURM                 MGR THIRD PARTY CLAIMS PROC   LHERZWURM@SCHNUCKS.COM                            00000000                                                                                                                                            
000430MEDCART SPECIALTY CARE LLC         PO BOX 742382                                                                                                 LOS ANGELES                   CA9007423826238693463     6238691278                         REBECCA DAVENPORT             ACCOUNTANT - AR PHARMACY      REBECCA.DAVENPORT@SAFEWAY.COM                     00000000                                                                                                                                            
000448WEIS PHARMACY DEPT                 P O BOX 8500-2022                                      LOCKBOX # 2022                                         PHILADELPHIA                  PA1917820225702863623     5709883774                         RICHARD SEIPP, RPH            VICE PRESIDENT, PHARMACY      RSEIPP@WEISMARKETS.COM                            00000000                                                                                                                                            
9999999M0309012020447   Copyright 2020 National Council for Prescription Drug Programs, All Rights Reserved                                                                                                                                                                                                                                                                                                                                                                                                         
