9999999M040901202041    Copyright 2020 National Council for Prescription Drug Programs, All Rights Reserved                                                                                                                                                                                                                                                                                                                                                                                                         
000026KROGER CORPORATE PHARMACY          11450 GROOMS RD                                                                                               CINCINNATI                    OH45242    5133877113     5133878305          310345740      JESSIE WARMAN                 MANAGER OF LICENSING          JESSIE.WARMAN@KROGER.COM                          00000000                                                                                                                                            
000034CVS HEALTH                         ONE CVS DRIVE                                          BOX 1075                                               WOONSOCKET                    RI02895    40176515002751 4017707108          050494040      SUE COLBERT                   SR. DIRECTOR, PAYER RELATIONS SUSAN.COLBERT@CVSHEALTH.COM                       00000000                                                                                                                                            
000059WAKEFERN                                                                                                                                                                                  7325218448                                        MONA GADKARI                                                MONA.GADKARI@WAKEFERN.COM                         00000000                                                                                                                                            
000075BROOKSHIRE                                                                                                                                                                                93663481554487                                    REBEKAH MODISETTE                                           RMODISETTE@BROOKSHIREBROS.COM                     00000000                                                                                                                                            
000109ARETE PHARMACY NETWORK             7243 N 16TH STREET                                                                                            PHOENIX                       AZ85020    6026781179                         811248259      DODY CUMMINGS                 CONTRACT SPECIALIST, MANAGED CMEMBER.SERVICES@ARETERX.COM                       00000000                                                                                                                                            
000117PHARMACY FIRST                     11880 COLLEGE BLVD STE 420                                                                                    OVERLAND PARK                 KS6621027949136610298160  9136610297          204551973      BILLIE BRADLEY                DIRECTOR OF ENROLLMENT & CREDEBBRADLEY@PHARMACYFIRST.COM                        00000000                                                                                                                                            
000133HEALTH MART ATLAS                  6530 W CAMPUS OVAL                                     SUITE 250                                              NEW ALBANY                    OH43054    8008241763     8887510555          823739451      JENNIFER KUHAR                CREDENTIALING MANAGER         JENNIFER.KUHAR@MCKESSON.COM                       00000000                                                                                                                                            
000141FRED'S STORES OF TENNESSEE, INC.   4300 NEW GETWELL RD                                                                                           MEMPHIS                       TN38118    9012382520     9013659820          710439888      BETTY NGO                     VICE PRESIDENT REIMBURSEMENT PBNGO@FREDSINC.COM                                 00000000                                                                                                                                            
000158INDIAN HEALTH SERVICE              40 N CENTRAL AVE                                       TWO RENAISSANCE SQUARE, SUITE 670                      PHOENIX                       AZ8500444246023645277     6023645173                         PAMELA SCHWEITZER             PHARMCY CONSULTANT            PAM.SCHWEITZER@IHS.GOV                            00000000                                                                                                                                            
000166AHOLD USA                          1149 HARRISBURG PIKE                                   ATTN: THIRD PARTY COORDINATOR                          CARLISLE                      PA1701316077179608553     7179601389          530073545      GAYLE SHIELDS                 DIRECTOR THIRD PARTY          GAYLE.SHIELDS@AHOLD.COM                           00000000                                                                                                                                            
000182SPARTAN STORES INC.                850 76TH ST SW                                                                                                BYRON CENTER                  MI4931585106163782000                                        MICHAEL JAY SMITH             THIRD PARTY CONTRACT ADMIN    MIKE_SMITH@SPARTANSTORES.COM                      00000000                                                                                                                                            
000190SUPERVALU INC                      421 3RD ST. S                                                                                                 STILLWATER                    MN55082    6517794023     6517792023          410617000      JESSICA O'CONNELL             MANAGER, MANAGED CARE         SVUPHARMACYMANAGEDCA@SUPERVALU.COM                00000000                                                                                                                                            
000208POC NETWORK TECHNOLOGIES INC       3000 W WARNER AVE                                                                                             SANTA ANA                     CA92704    7144370330     7144370336                         ANDREA SERATTE                SPECIALTY SERVICES            ASERATTE@DIS-SOL-INC.COM                          00000000                                                                                                                                            
000216NORTHEAST PHCY SVCE CORP           1661 WORCESTER RD                                      STE 405                                                FRAMINGHAM                    MA01701    5088751866     5088756108                         DAVID BENIOT                  VP PATIENT CARE SRVS          DBENOIT@NORTHEASTPHARMACY.COM                     00000000                                                                                                                                            
000224EPIC PHARMACY NETWORK INC          8703 STUDELY ROAD                                      STE B                                                  MECHANICSVILLE                VA23116    8045594597     8044278943          541637450      ANNIE JESSEE                  MEMBER SERVICES MANAGER       AJESSEE@EPICRX.COM                                00000000                                                                                                                                            
000240PPOK                               3000 E MEMORIAL ROAD                                                                                          EDMOND                        OK73013    4055575700                         731250178      MELANIE MAXWELL               SENIOR VP, PHARMACY SERVICES  MMAXWELL@PPOK.COM                                 00000000                                                                                                                                            
000257RITE AID CORPORATION               PO BOX 3165                                                                                                   HARRISBURG                    PA17105    7179755937     7179758659                         JENNIFER ZOREK                MANAGER ONLINE ADJUDICATION   JZOREK@RITEAID.COM                                00000000                                                                                                                                            
000265TAMPA FAMILY HEALTH CENTERS        P.O.BOX 82969                                                                                                 TAMPA                         FL33682    8138660930     8138660929          592420282      EDWARD KUCHER                 CFO                           EKUCHER@HCNETWORK.ORG                             00000000                                                                                                                                            
000281WALGREENS                          200 WILMOT RD                                                                                                 DEERFIELD                     IL6001546202177092351                         361924025      KIRA TAYLOR                   MANAGER, PROVIDER ENROLLMENT  KIRA.LEE.TAYLOR@WALGREENS.COM                     00000000                                                                                                                                            
000315ACCREDO HEALTH INC                 1640 CENTURY CENTER PKWY STE 101                                                                              MEMPHIS                       TN3813488229013817141     9012616924          550894449      CATHY BELLEHUMEUR             VICE PRESIDENT                AVA.LOWRY@ACCREDO.COM                             00000000                                                                                                                                            
9999999M040901202041    Copyright 2020 National Council for Prescription Drug Programs, All Rights Reserved                                                                                                                                                                                                                                                                                                                                                                                                         
