9999999T010901202015963 Copyright 2020 National Council for Prescription Drug Programs, All Rights Reserved                                                                                                                                                                                                                                                                                                                                                                                                                                                                                                                                                                                                                                                                                                                                                                                                                                                                                                                             
0100052MEDICINE FOR LESS INC                                       SMITHERMANS PHARMACY                                                                                                              703 MAIN ST                                                                                                   MONTEVALLO                    AL35115    2056652575     2056650940SMITHERMANSPHARM@BELLSOUTH.NET                                                                      011171000    N1131720919309194091950919609197091906  en        0801198800000000703 MAIN ST                                                                                                   MONTEVALLO                    AL35115    SHUNNARAH           SAMMY                OWNER                         2056652575     SMITHERMANSPHARM@BELLSOUTH.NET                    0101              1457492183AS0479611   02282021630984272      35926              00000000C08122020                                                              
0100622MCCONAGHY DRUG INC                                          MCCONAGHY DRUG STORE                                                                                                    1         5565 HWY 43                                                                                                   SATSUMA                       AL3657204882516752070     2516757785BFDRUGSAL@GMAIL.COM                               HWY 43 AND BAYOU AVE                              010975160    N1    20843308434084350843608437091401  en        0507200700000000PO BOX 488                                                                                                    SATSUMA                       AL36572    MCCONAGHY           DAN                  CFO                           2516752070     RXDMC@HOTMAIL.COM                                 0101181303243200031366541203AM0472011   01312021630701196      49C27              00000000C08272020                                                              
0101232COOKS PHARMACY INC                                          DURHAM PHARMACY                                                                                                                   44984 HIGHWAY 17                                                                                              VERNON                        AL35592    2056959611     2056957455SFDJR82@YAHOO.COM                                                                                   01075        N1    20818308184081850818608187081404  en        0314200700000000PO BOX 509                                                                                                    VERNON                        AL35592    DURHAM              SAM                 FOWNER/PIC/AO                  2056959611     SFDJR82@YAHOO.COM                                 01011913          1477685717AC0476449   06302023630983059      380002365          00000000C08272020                                                              
0102020SUSAN ENTERPRISES                                           MEDICAL ARTS APOTHECARY                                                                                                           124 7TH STREET SW                                                                                             CULLMAN                       AL35055    2567344933     2567342304MEDARTSRX@GMAIL.COM                               2ND AVE SW                                        01043        N1    20842308424084250842608427081304  en        0701199800000000124 7TH STREET SW                                                                                             CULLMAN                       AL35055    ADKISON             SUSAN                OWNER/PIC/AO                  2567344933     MEDARTSRX@GMAIL.COM                               0101    70963500011568453280FM4314326   01312023464405088                         00000000C08122020                                                              
0102309COLBURNS NORTHPORT PHARMACY INC                             COLBURNS NORTHPORT PHARMACY INC                                                                                                   909 MCFARLAND BLVD                                                                                            NORTHPORT                     AL35476    2053395800     2053395851NORTHPORTPHARMACY@HOTMAIL.COM                                                                       011258600    N1    20818308184081850818608187081207  en        0412200700000000909 MCFARLAND BLVD                                                                                            NORTHPORT                     AL35476    COLBURN             ROBERT              MOWNER                         2053395800     NORTHPORTPHARMACY@HOTMAIL.COM                     0101    11638500011306944269BC2276815   08312023631020618      631020618          00000000C08242020                                                              
0102397IDER DISCOUNT DRUGS INC                                     IDER DISCOUNT DRUGS INC                                                                                                           10705 ALABAMA HWY 75                                                                                          IDER                          AL35981    2566576161     2566572275IDERDRUGS@GMAIL.COM                                                                                 01049        N1    20818308184081850818608187081304  en        022120070000000010705 ALABAMA HWY 75                                                                                          IDER                          AL35981    WILLIAMS            RODNEY               OWNER/AO                      2566386070     AUBIE34@YAHOO.COM                                 010113  12834700011922067966FI5022796   11302020631227451      250010395          00000000C08042020                                                              
0102436J & S DRUGS INC                                             J AND S DRUGS INC                                                                                                                 1130 WALNUT ST                                                                                                CENTREVILLE                   AL35042    2059267621     2059267662JSDRUGS08@YAHOO.COM                                                                                 01007        N1    23218332184321853218632187323807  en        05192007000000001130 WALNUT ST                                                                                                CENTREVILLE                   AL35042    BROOKS              GARY                WOWNER                         2059264821     JSDRUGS08@YAHOO.COM                               010113  58560100011265570428BJ2537364   12312020631027975      040001975          00000000C08132020                                                              
0102462CAMP DRUGS LLC                                              CAMP DRUGS LLC                                                                                                                    18294 BROAD ST                                                                                                HENAGAR                       AL35978    2566575187     2566572232KEVIN@CAMPDRUGS.COM                                                                                 01049        N1    20818308184081850818608187081405  en        101220080000000018294 BROAD ST                                                                                                HENAGAR                       AL35978    CAMP                KEVIN               DOWNER/PIC/AO                  2566575187     KEVIN@CAMPDRUGS.COM                               0101    58157900011083786305FC0011899   08312021205156206      SLSR000012308      00000000C08272020                                                              
0102614HARBIN PHARMACY INC                                         HARBIN DISCOUNT PHARMACY                                                                                                2         521 RICHARD ARRINGTON BLVD SO                                                                                 BIRMINGHAM                    AL35233    2053232474     2053232488HARBINRX@YAHOO.COM                                                                                  010731000    N1    23218332184321853218632187081406  en        0101195800000000521 RICHARD ARRINGTON BLVD SO                                                                                 BIRMINGHAM                    AL35233    TRIMBLE             STEVE               MOWNER/RPH/AO                  2053232474     HARBINRX@YAHOO.COM                                010113            1588700132AH0483230   10312020630524174      37-21007           00000000C08312020                                                              
0102791J L SCOTT, INC                                              CIRCLE PHARMACY                                                                                                                   2021 ALEXANDER ST                                      STE A                                                  DOTHAN                        AL36301    3347922717     3347929408BRENDA@CIRCLEPH.COM                                                                                 010692180    N1    20818308184081850818608187081202  en        0701197300000000P, O. BOX 849                                                                                                 DOTHAN                        AL36302    MCLEOD              ZACHARY              OWNER                         3347922717     ZACHMCLEOD7@GMAIL.COM                             010113            1710977970AC5557321   08312023630828193                         00000000C08272020                                                              
0102981FAIRHOPE PHARMACY INC                                       FAIRHOPE PHARMACY                                                                                                                 398 FAIRHOPE AVE                                                                                              FAIRHOPE                      AL36532    2519288822     2519283357FAIRHOPEPHARMACY@GMAIL.COM                                                                          010035160    N1    23343333434334353343633437334301  en        0529200700000000398 FAIRHOPE AVE                                                                                              FAIRHOPE                      AL36532    BARNHILL            BETTY               PPRESIDENT, AO                 2519288822     BBETFAIR@AOL.COM                                  0101              1336222959AF0474293   09302020631135617      AL020013270        00000000C08072020                                                              
0103046WELDON PHARMACY INC                                         WELDON PHARMACY INC                                                                                                               1280 HUEYTOWN ROAD                                                                                            HUEYTOWN                      AL35023    2054912805     2054971432WELDONPHAR@AOL.COM                                                                                  010731000    N1    20919309194091950919609197091407  en        04011960000000001280 HUEYTOWN ROAD                                                                                            HUEYTOWN                      AL35023    WELDON              STEVE               LVP/PIC/AO                     2054912805     WELDONPHAR@AOL.COM                                0101131801249500011962402693AW0472009   05312021630415340      3710696            00000000C08102020                                                              
0103084K&P PHARMACY LLC                                            HOSPITAL DISCOUNT PHARMACY CENTRAL                                                                                                209 4TH AVE NE                                                                                                CULLMAN                       AL3505519932567346013     2567346458WILLIAMKIAHBROWN@GMAIL.COM                                                                          01043        N1    23318333184331853318633187331404  en        08011968000000002104 AL HWY 157                                                                                               CULLMAN                       AL35058    BROWN               KIAH                 PHARMACY OWNER                2052690878     KIAH@SPECIALTYPHARMACYONLINE.COM                  010113  05475700011104962695FK8973073   12312022833003748                         00000000C08102020                                                              
0103111EASTERN VALLEY DRUGS INC                                    EASTERN VALLEY DRUGS                                                                                                              1310 EASTERN VALLEY ROAD                                                                                      BESSEMER                      AL35020    2054255258     2054251373CHARLESCHAZZ@AOL.COM                                                                                010731000    N1    20918309184091850918609187091407  en        04262007000000001310 EASTERN VALLEY ROAD                                                                                      BESSEMER                      AL35020    PRICKETT            CHARLES             EPRESIDENT, AO                 2054255258     CHARLESCHAZZ@AOL.COM                              0101131805362800011568449049AE0473695   08312023630850691      17007090           00000000C08272020                                                              
0103628CARLISLE DRUG COMPANY INC                                   HOMETOWN PHARMACY                                                                                                                 839 AIRPORT DR STE 101                                                                                        ALEXANDER CITY                AL35010    2563290900     2563290999DCHAMPION266@YAHOO.COM                                                                              01123        N1    20818308184081850818608187081203  en        1001199700000000839 AIRPORT DR STE 101                                                                                        ALEXANDER CITY                AL35010    CHAMPION            DANIEL              DOWNER/PIC/AO                  2563290900     DCHAMPION266@YAHOO.COM                            0101              1750423174BC5638626   08312021630928954      620000160          00000000C08102020                                                              
0103894DOWNEY DRUG ANNISTON                                        DOWNEY DRUG                                                                                                                       2427 HWY 202                                                                                                  ANNISTON                      AL36201    2562379426     2562374352DOWNEYDRUG@GMAIL.COM                                                                                010150450    N1    20919309194091950919609197091503  en        02011980000000002427 HWY 202                                                                                                  ANNISTON                      AL36201    ELLIS               JOHNNIE             APHARMACIST                    2562361531     RX2006JE@GMAIL.COM                                0101    57874400011396850285BW0476069   06302021820693717      09805              00000000C08032020                                                              
0105418WILLARDS MEDICAL ARTS PHARMACY INC                          WILLARDS MEDICAL ARTS PHARMACY                                                                                                    313 E PUSHMATAHA ST                                                                                           BUTLER                        AL3690425332054593710     2054593970MEDICALARTSPHARM@TDS.NET                                                                            01023        N1    20842308424084250842608427081207  en        0909198400000000313 E PUSHMATAHA ST                                                                                           BUTLER                        AL36904    MCDONALD            WILLARD             SOWNER, PIC, AO                2054593710     MEDICALARTSPHARM@TDS.NET                          0101141843136400011508832932AM4455297   05312023630887811      120001437          00000000C08072020                                                              
0105432BYNUM DRUG INC                                              BYNUM DRUG INC                                                                                                                    1926 BYNUM BLVD                                                                                               EASTABOGA                     AL3626054312562377533     2562377537BYNUMDRUG@HOTMAIL.COM                                                                               010150450    N1    20918309184091850918609187091403  en        0630197700000000P.O. BOX 368                                                                                                  BYNUM                         AL362530368KIMBERLY            RONNY               DOWNER AND PHARMACIST          2562377533     BYNUMDRUG@HOTMAIL.COM                             0101              1366509051AB7489695   07312023630746521      136002             00000000C08102020                                                              
0105521DEANS DRUGS INC                                             DEANS DRUGS INC. #2                                                                                                               699 CEDAR BLUFF RD                                                                                            CENTRE                        AL35960    2569275569     2569272440DEANSDRUGS@TDS.NET                                INTERSECTION OF AL HWY 68 AND HWY 411             01019        N1131820820308204082050820608207081803  en        0405200700000000699 CEDAR BLUFF RD                                                                                            CENTRE                        AL35960    BISHOP              ROBERT              TOWNER/PIC/AO                  2569275569     TRACYBISH@TDS.NET                                 0101131905536300011417021403AD3473523   06302021630653583                         00000000C08122020                                                              
0105583CITRONELLE DRUG COMPANY INC                                 CITRONELLE DRUG COMPANY INC                                                                                                       19240 N MOBILE STREET                                                                                         CITRONELLE                    AL36522    2518665522     2518662335CITRONELLEDRUG@BELLSOUTH.NET                                                                        010975160    N1    20918309184091850918609187091301  en        0501200700000000PO BOX 386                                                                                                    CITRONELLE                    AL36522    JEFFUS              ROBERT              WPRESIDENT AND OWNER           2518665522     CITRONELLEDRUG@BELLSOUTH.NET                      010104            1871622555AC0474370   08312023630372538      49E00972           00000000C08172020                                                              
9999999T010901202015963 Copyright 2020 National Council for Prescription Drug Programs, All Rights Reserved                                                                                                                                                                                                                                                                                                                                                                                                                                                                                                                                                                                                                                                                                                                                                                                                                                                                                                                             
