9999999M040901202041    Copyright 2020 National Council for Prescription Drug Programs, All Rights Reserved                                                                                                                                                                                                                                                                                                                                                                                                         
000026KROGER CORPORATE PHARMACY          11450 GROOMS RD                                                                                               CINCINNATI                    OH45242    5133877113     5133878305          310345740      JESSIE WARMAN                 MANAGER OF LICENSING          JESSIE.WARMAN@KROGER.COM                          00000000                                                                                                                                            
000034CVS HEALTH                         ONE CVS DRIVE                                          BOX 1075                                               WOONSOCKET                    RI02895    40176515002751 4017707108          050494040      SUE COLBERT                   SR. DIRECTOR, PAYER RELATIONS SUSAN.COLBERT@CVSHEALTH.COM                       00000000                                                                                                                                            
000059WAKEFERN                                                                                                                                                                                  7325218448                                        MONA GADKARI                                                MONA.GADKARI@WAKEFERN.COM                         00000000                                                                                                                                            
000075BROOKSHIRE                                                                                                                                                                                93663481554487                                    REBEKAH MODISETTE                                           RMODISETTE@BROOKSHIREBROS.COM                     00000000                                                                                                                                            
000109ARETE PHARMACY NETWORK             7243 N 16TH STREET                                                                                            PHOENIX                       AZ85020    6026781179                         811248259      DODY CUMMINGS                 CONTRACT SPECIALIST, MANAGED CMEMBER.SERVICES@ARETERX.COM                       00000000                                                                                                                                            
000117PHARMACY FIRST                     11880 COLLEGE BLVD STE 420                                                                                    OVERLAND PARK                 KS6621027949136610298160  9136610297          204551973      BILLIE BRADLEY                DIRECTOR OF ENROLLMENT & CREDEBBRADLEY@PHARMACYFIRST.COM                        00000000                                                                                                                                            
000133HEALTH MART ATLAS                  6530 W CAMPUS OVAL                                     SUITE 250                                              NEW ALBANY                    OH43054    8008241763     8887510555          823739451      JENNIFER KUHAR                CREDENTIALING MANAGER         JENNIFER.KUHAR@MCKESSON.COM                       00000000                                                                                                                                            
000141FRED'S STORES OF TENNESSEE, INC.   4300 NEW GETWELL RD                                                                                           MEMPHIS                       TN38118    9012382520     9013659820          710439888      BETTY NGO                     VICE PRESIDENT REIMBURSEMENT PBNGO@FREDSINC.COM                                 00000000                                                                                                                                            
000158INDIAN HEALTH SERVICE              40 N CENTRAL AVE                                       TWO RENAISSANCE SQUARE, SUITE 670                      PHOENIX                       AZ8500444246023645277     6023645173                         PAMELA SCHWEITZER             PHARMCY CONSULTANT            PAM.SCHWEITZER@IHS.GOV                            00000000                                                                                                                                            
000166AHOLD USA                          1149 HARRISBURG PIKE                                   ATTN: THIRD PARTY COORDINATOR                          CARLISLE                      PA1701316077179608553     7179601389          530073545      GAYLE SHIELDS                 DIRECTOR THIRD PARTY          GAYLE.SHIELDS@AHOLD.COM                           00000000                                                                                                                                            
000182SPARTAN STORES INC.                850 76TH ST SW                                                                                                BYRON CENTER                  MI4931585106163782000                                        MICHAEL JAY SMITH             THIRD PARTY CONTRACT ADMIN    MIKE_SMITH@SPARTANSTORES.COM                      00000000                                                                                                                                            
000190SUPERVALU INC                      421 3RD ST. S                                                                                                 STILLWATER                    MN55082    6517794023     6517792023          410617000      JESSICA O'CONNELL             MANAGER, MANAGED CARE         SVUPHARMACYMANAGEDCA@SUPERVALU.COM                00000000                                                                                                                                            
000208POC NETWORK TECHNOLOGIES INC       3000 W WARNER AVE                                                                                             SANTA ANA                     CA92704    7144370330     7144370336                         ANDREA SERATTE                SPECIALTY SERVICES            ASERATTE@DIS-SOL-INC.COM                          00000000                                                                                                                                            
000216NORTHEAST PHCY SVCE CORP           1661 WORCESTER RD                                      STE 405                                                FRAMINGHAM                    MA01701    5088751866     5088756108                         DAVID BENIOT                  VP PATIENT CARE SRVS          DBENOIT@NORTHEASTPHARMACY.COM                     00000000                                                                                                                                            
000224EPIC PHARMACY NETWORK INC          8703 STUDELY ROAD                                      STE B                                                  MECHANICSVILLE                VA23116    8045594597     8044278943          541637450      ANNIE JESSEE                  MEMBER SERVICES MANAGER       AJESSEE@EPICRX.COM                                00000000                                                                                                                                            
000240PPOK                               3000 E MEMORIAL ROAD                                                                                          EDMOND                        OK73013    4055575700                         731250178      MELANIE MAXWELL               SENIOR VP, PHARMACY SERVICES  MMAXWELL@PPOK.COM                                 00000000                                                                                                                                            
000257RITE AID CORPORATION               PO BOX 3165                                                                                                   HARRISBURG                    PA17105    7179755937     7179758659                         JENNIFER ZOREK                MANAGER ONLINE ADJUDICATION   JZOREK@RITEAID.COM                                00000000                                                                                                                                            
000265TAMPA FAMILY HEALTH CENTERS        P.O.BOX 82969                                                                                                 TAMPA                         FL33682    8138660930     8138660929          592420282      EDWARD KUCHER                 CFO                           EKUCHER@HCNETWORK.ORG                             00000000                                                                                                                                            
000281WALGREENS                          200 WILMOT RD                                                                                                 DEERFIELD                     IL6001546202177092351                         361924025      KIRA TAYLOR                   MANAGER, PROVIDER ENROLLMENT  KIRA.LEE.TAYLOR@WALGREENS.COM                     00000000                                                                                                                                            
000315ACCREDO HEALTH INC                 1640 CENTURY CENTER PKWY STE 101                                                                              MEMPHIS                       TN3813488229013817141     9012616924          550894449      CATHY BELLEHUMEUR             VICE PRESIDENT                AVA.LOWRY@ACCREDO.COM                             00000000                                                                                                                                            
000331COSTCO PHARMACY                    999 LAKE DR                                                                                                   ISSAQUAH                      WA9802789904253136670     4253136595          911223280      ROBERT TAKI                   DIRECTOR                      RTAKI@COSTCO.COM                                  00000000                                                                                                                                            
000349MEIJER INC                         2929 WALKER AVE NW                                                                                            GRAND RAPIDS                  MI4954464026167915185                                        KEVIN HURN                    DIRECTOR, PHARMACY ADMINISTRATRXNOTICES@MEIJER.COM                              00000000                                                                                                                                            
000356MHM SUPPORT SERVICES, INC          14528 S OUTER 40 RD                                    STE 100                                                CHESTERFIELD                  MO6301757853146285606     3146283734          821802538      PATRICK BERRY                 EXEC DIR RETAIL PHARMACY      PATRICK.BERRY@MERCY.NET                           00000000                                                                                                                                            
000364ALBERTSONS COMPANIES INC           250 E PARKCENTER BLVD                                  MAILSTOP SWC2_D                                        BOISE                         ID8370639402083953906     6232823834          474376911      KATHY GIANNAKOPOULOS          MANAGER, MANAGED CARE         KATHY.GIANNAKOPOULOS@ALBERTSONS.COM               00000000                                                                                                                                            
000414CARDINAL HEALTH                    7000 CARDINAL PL                                                                                              DUBLIN                        OH4301710918888875323                         311345125      BEN MINISTER                  DIRECTOR                      BEN.MINISTER@CARDINALHEALTH.COM                   00000000                                                                                                                                            
000422CCI                                PO BOX 3328                                                                                                   BENTONVILLE                   AR7271217844796369702208848774272307          452856656      BRENDA LOWING                 DIRECTOR OF OPERATIONS        ENROLLMENT@CC-MEDICAL.COM                         00000000                                                                                                                                            
000448WALMART INC.                       702 SW 8TH ST                                                                                                 BENTONVILLE                   AR7271604454792048550                         710415188      SARAH LITTLE                  DIRECTOR, HEALTHCARE CONTRACTIENROLLM@WAL-MART.COM                              00000000                                                                                                                                            
000455CARDINAL HEALTH PHARMACY SERVICES, 1330 ENCLAVE PARKWAY                                                                                          HOUSTON                       TX77077    2817494000     6146524464          264679035      MICHAEL BROWN                 VICE PRESIDENT, MANAGED SERVICMIKE.BROWN@CARDINALHEALTH.COM                     00000000                                                                                                                                            
000463SAV MOR DRUGS                      25625 SOUTHFIELD RD                                                                                           SOUTHFIELD                    MI48075    2483481570                         383274808      YVONNE GALLAGHER              PRESIDENT                     PHARMACYSERVICES@SAV-MOR.COM                      00000000                                                                                                                                            
000471ONCOMED SPECIALTY LLC              1901 CAMPUS PLACE                                                                                             LOUISVILLE                    KY4029923085026277100                         463896552      PAUL JARDINA                  PRESIDENT                     PAUL.JARDINA@ONCO360.COM                          00000000                                                                                                                                            
000489BIOSCRIP, INC.                     1600 BROADWAY                                          SUITE 700                                              DENVER                        CO80202    7206975171                         050489664      ERIK HEIKKENEN                EXECUTIVE DIRECTOR, LICENSURE LICENSURE@BIOSCRIP.COM                            00000000                                                                                                                                            
000497APOTHECARY HOLDINGS, INC           24416 N 19TH AVE                                                                                              PHOENIX                       AZ85085    6237421700                         263913051      REBECCA SHANAHAN              CEO                           REBECCA.SHANAHAN@AVELLA.COM                       00000000                                                                                                                                            
000505OPTUM INC                          9900 BREN ROAD EAST                                    MN008-T502                                             MINNETONKA                    MN5534396642242311594     2242311932          300580620      HEATHER LANG JACOBSEN         ASSISTANT SECRETARY           MALETA.BEAHAN@OPTUM.COM                           00000000                                                                                                                                            
000513CORIS DISPENSING NETWORK           14140 SOUTHWEST FWY                                    4TH FLOOR                                              SUGAR LAND                    TX77478    2812954000                         760291601      MARK WINTERS                  PRESIDENT                     MWINTERS@HEALIX.NET                               00000000                                                                                                                                            
000521ELEVATE PROVIDER NETWORK           500 NORTH STATE COLLEGE                                SUITE 900                                              ORANGE                        CA92868    7147044471                         232353106      MARISSA RODRIGUEZ             MANAGER, MEMBERSHIP           MRODRIGUEZ@AMERISOURCEBERGEN.COM                  00000000                                                                                                                                            
000539ACCESSHEALTH                       6530 W CAMPUS OVAL                                     SUITE 250                                              NEW ALBANY                    OH43054    8008241763                         311522914      JENNIFER KUHAR                CREDENTIALING MANAGER         JENNIFER.KUHAR@MCKESSON.COM                       00000000                                                                                                                                            
000547FARMACIA CARIDAD                   PO BOX 4218                                                                                                   BAYAMON                       PR00958    7877877733                         660466116      MANNA YASSIN                  CIO/CFO                       MANNA@CARIDADPR.COM                               00000000                                                                                                                                            
000554VCU HEALTH SYSTEM                  401 N. 12TH STREET                                                                                            RICHMOND                      VA23298    8048284607                         541848065      LAUREL MARSDEN                ASSISTANT DIRECTOR OF PHARMACYLAUREL.MARSDEN@VCUHEALTH.ORG                      00000000                                                                                                                                            
000562BAILEY'S PHARMACY                  780 US HWY 1                                           SUITE 101                                              VERO BEACH                    FL32962    7724928559     7724928735          451810240      TRISHA BAILEY                 CEO                           TBAILEY0802@GMAIL.COM                             00000000                                                                                                                                            
000570MCR HEALTH, INC.                   700 8TH AVENUE W                                       SUITE 101                                              PALMETTO                      FL34221    9417764000251  9417537010          591773262      PATRICK CARNEGIE              PRESIDENT AND CEO             PCARNEGIE@MCRHS.ORG                               00000000                                                                                                                                            
000588KAISER FOUNDATION HEALTH PLAN INC  ONE KAISER PLAZA, SUITE 15L                                                                                   OAKLAND                       CA9461236105626583730                         941340523      MICHAEL CHEN                  PHARMACY FINANCE, DIR REVENUE MICHAEL.D.CHEN@KP.ORG                             00000000                                                                                                                                            
9999999M040901202041    Copyright 2020 National Council for Prescription Drug Programs, All Rights Reserved                                                                                                                                                                                                                                                                                                                                                                                                         
