11649700067                0000000070699872018022720180228201802280000115552210FENOFIBRATE 160 MG       TAB00000000000                             000003000003000000000000018730000015700000095000019690000196900000000OM000019693  00000000                 BAL        XXXXXXXXXXXXXXX0049153 3 0LIM            ASTOR L    AL9590034AL9590034      GA1891714887BRUNSWICK      GA31520          1174947907XXXX  2XXXXX  1164970MOSLVI1                          2   D          N            00000000         N EA       01   0  XXXXXXXXXXXXXXXXXXXXXXXXXXXXXXXXXXXXXXXXXXXXXXXXXXXXXXXXXXXXXXXXXXXXXXXXXXXXXXXXXXXXXXXXXXXXXXXXXXXXXXXXXXXXXXXXa
11649700067                0000000070699882018022720180228201802280057237020490LOSARTAN POT 25 MG       TAB00000000000                             000001500003000000000000002000000000000000000000002000000020000000000OA000002003  00000000                 BAL        XXXXXXXXXXXXXXX0049153 3 0LIM            ASTOR L    AL9590034AL9590034      GA1891714887BRUNSWICK      GA31520          1174947907XXXX  2XXXXX  1164970MOSLVI1                          2   D          N            00000000         N EA       01   0  XXXXXXXXXXXXXXXXXXXXXXXXXXXXXXXXXXXXXXXXXXXXXXXXXXXXXXXXXXXXXXXXXXXXXXXXXXXXXXXXXXXXXXXXXXXXXXXXXXXXXXXXXXXXXXXXb
11649700067                0000000050105812018022820180228201802280067253090250ALPRAZOLAM 1 MG          TAB00000000000                             000003000001000000000000000550000000000000040000000140000001400000081OM000000953  00000000                 BFEP       XXXXXXXXXXXXXXX6102395 5 0HEINE          DAVID WAYN AH1644738030616         GA1750397899BRUNSWICK      GA31520          1174947907XXXX  1XXXXX  1164970SHUMGE1                          4   DFEPRX     N            00000000         N EA       01   0  XXXXXXXXXXXXXXXXXXXXXXXXXXXXXXXXXXXXXXXXXXXXXXXXXXXXXXXXXXXXXXXXXXXXXXXXXXXXXXXXXXXXXXXXXXXXXXXXXXXXXXXXXXXXXXXXc
11649700067                0000000070662412017122820180226201802280200002446230CIALIS 5 MG              TAB00000000000                             000003000003000000000000342680000000000000040000171540001715400017154OO000343083  00000000                 BFEP       XXXXXXXXXXXXXXX610239119 0HEINE          DAVID WAYN AH1644738030616         GA1750397899BRUNSWICK      GA31520          1174947907XXXX  1XXXXX  1164970SHUMGE1                          3   DFEPRX     N            00000000         N EA       01   0  XXXXXXXXXXXXXXXXXXXXXXXXXXXXXXXXXXXXXXXXXXXXXXXXXXXXXXXXXXXXXXXXXXXXXXXXXXXXXXXXXXXXXXXXXXXXXXXXXXXXXXXXXXXXXXXXd
11649700067                0000000070700132018022820180228201802280067405050003TERBINAFINE 250 MG       TAB00000000000                             000003000003000000000000002860000000000000040000000650000006500000261OM000003263  00000000                 BFEP       XXXXXXXXXXXXXXX6102392 2 0BODAMER        BRETT A    BB3248970POD000668      GA1083696389BRUNSWICK      GA31520          1174947907XXXX  2XXXXX  1164970SHUMJA2                          3   DFEPRX     N            00000000         N EA       01   0  XXXXXXXXXXXXXXXXXXXXXXXXXXXXXXXXXXXXXXXXXXXXXXXXXXXXXXXXXXXXXXXXXXXXXXXXXXXXXXXXXXXXXXXXXXXXXXXXXXXXXXXXXXXXXXXXe
11649700067                0000000070700402018022820180228201802280065862001905CEPHALEXIN 500 MG        CAP00000000000                             000003000001000000000000002420000000000000040000000420000004200000240OM000002823  00000000                 BFEP       XXXXXXXXXXXXXXX6102390 0 0HEINE          DAVID WAYN AH1644738030616         GA1750397899BRUNSWICK      GA31520          1174947907XXXX  1XXXXX  1164970SHUMGE1                          3   DFEPRX     N            00000000         N EA       01   0  XXXXXXXXXXXXXXXXXXXXXXXXXXXXXXXXXXXXXXXXXXXXXXXXXXXXXXXXXXXXXXXXXXXXXXXXXXXXXXXXXXXXXXXXXXXXXXXXXXXXXXXXXXXXXXXXf
11649700067                0000000070520632017041420180228201802280316729000517SIMVASTATIN 20 MG        TAB00000000000                             000009000009000000000000004500000000000000080000007570000075700000000OO000005303  00000000                 BIOS       XXXXXXXXXXXXXXX0165163 0 0SCHUENEMAN     TRENT ARTH FS0123430051731         GA1164484911BRUNSWICK      GA31520          1174947907XXXX  1XXXXX  1164970HARGLE1                          3   D14990     N            00000000         N EA       01   0  XXXXXXXXXXXXXXXXXXXXXXXXXXXXXXXXXXXXXXXXXXXXXXXXXXXXXXXXXXXXXXXXXXXXXXXXXXXXXXXXXXXXXXXXXXXXXXXXXXXXXXXXXXXXXXXXg
11649700067                0000000070585752017080920180228201802280562332001031VENLAFAXINE 50 MG        TAB00000000000                             000003000003000000000000006500000000000000095000000000000000000000745OM000007453  00000000                 BMN        XXXXXXXXXXXXXXX610455116 0JOSEPH         JASON MICH FJ2521309065980         GA1356550610BRUNSWICK      GA31520          1174947907XXXX  2XXXXX  1164970EDGYRE1                          4   DHMHS      N            00000000         N EA       01   0  XXXXXXXXXXXXXXXXXXXXXXXXXXXXXXXXXXXXXXXXXXXXXXXXXXXXXXXXXXXXXXXXXXXXXXXXXXXXXXXXXXXXXXXXXXXXXXXXXXXXXXXXXXXXXXXXh
11649700067                0000000024125942018022820180228201802280042858010201OXYCODONE/APAP 5-325 MG  TAB00000000000                             000003000000500000000000004120000000000000125000005370000053700000000OM000005373  00000000                 CAT        XXXXXXXXXXXXXXX00594700NR0KATZ           MATTHEW D  FK4960224073013         GA1033258074BRUNSWICK      GA31520          1174947907XXXX  1XXXXX  1164970COUCBO1                          1   DCLAIMCR   N            00000000         N EA       01   0  XXXXXXXXXXXXXXXXXXXXXXXXXXXXXXXXXXXXXXXXXXXXXXXXXXXXXXXXXXXXXXXXXXXXXXXXXXXXXXXXXXXXXXXXXXXXXXXXXXXXXXXXXXXXXXXXi
11649700067                0000000024126022018022820180228201802280042858010201OXYCODONE/APAP 5-325 MG  TAB00000000000                             000001600000200000000000002200000000000000125000003450000034500000000OM000003453  00000000                 CAT        XXXXXXXXXXXXXXX00594700NR0LUCAS          TODD       FL4936944FL4936944      GA1053422238BRUNSWICK      GA31520          1174947907XXXX  2XXXXX  1164970STEPPA3                          1   DCLAIMCR   N            00000000         N EA       01   0  XXXXXXXXXXXXXXXXXXXXXXXXXXXXXXXXXXXXXXXXXXXXXXXXXXXXXXXXXXXXXXXXXXXXXXXXXXXXXXXXXXXXXXXXXXXXXXXXXXXXXXXXXXXXXXXXj
